:20000000F8300120E1DC0100A1C10310A1C10310A1C10310A1C10310A1C10310A1C103101B
:1C002000A1C10310A1C10310A1C10310A1C10310A1C10310A1C1031079C10310B9
:04003C00252627004E
:2000400038B53C4C207840B940F244720FF62C11394816F02FF901202070002137480170FF
:20006000012237490A700223364A5370032353720524042393760925334BDC7106249C7286
:200080000724947708249474304C25720A25CD710B251D730C2525700D241C700E245C7035
:2000A0000F230B71102111702949C0F8621031BD2DE9F0412749284A3F2000F057FCD1F8C2
:2000C00018E0D1F81C80136054609560D6601761C2F814C0C2F818E000F042FCEDD108685D
:2000E0004B688C68CD680E694F698969106053609460D560166157619161BDE8F0812DE96A
:20010000F0410FF25C01154A402000F02FFCD1F818E0D1F81C80136054609560D660176186
:20012000C2F814C0C2F818E000F01AFCEDD1BDE8F0810000F17A002024400021260400214A
:20014000DA0300219003002101040021B4030021AD450021D08502000080002100C0002103
:200160005B61F835F97546A257A3401F0713F134304000400140034007400F404F40CF4040
:20018000CF41CF43CF47CF4FCF3FCF2FCF1FCF0F304000400140034007400F404F40CF40C9
:2001A000CF7FCF6FCF5FCF4FCF3FCF2FCF1FCF0F50C00091007070C0009100708231210079
:2001C000319110B10070018101B100A18231329110B101911110418141223B40F106007066
:2001E00050C05091007070C05091007082312100819160B10070251050C00091F4C380C0E9
:200200002014036F31104104A082F0225840512622C082312100319110B163393110410414
:2002200082C082312100319110B163393110A2C082312100319110B15010153105145592E9
:2002400000702B64B2C2311031066131C1022E6412C13110213971065131E1022E64007080
:200260002864B18281318139E2C02E642B6411C122C12E6470C48B6811C1C2C02E64A46434
:20028000B76400704064B1828131813982C14664436411C1A2C0466470C49D6831C362C1CE
:2002A0004664A464B764007050B054B0007140804022B1440022A44060B08180111EA44447
:2002C000007054A064B0F0800022A44000704012B09032B0A382533953397164F0C2BF6861
:2002E0008080F1C1100451C1101CCB402B6421C2C2C02E64CF60436441C462C146649080B1
:200300005039D34400CED3688012B09032B000702B6401C2C2C02E64A08080314039DF6819
:2003200001C1C2C02E6401C122C12E64A3827164C012B09032B00070436401C462C1466419
:20034000A08080314039F36801C362C1466401C1A2C04664A3827164C012B09032B000703B
:200360002B6472C281C02E6422C111C12E6402C011C12E6462C031C32E6462C311C12E6449
:2003800002C311C12E64A38253397164E2C333641122164142C281C82E6452C211C12E6491
:2003A00072C2E1CE2E6402C281C82E6402C201C82E6470C12A6900702B6442C201C82E64E8
:2003C00052C211C02E6472C2E1C02E6402C001C12E6462C001C32E6422C101C12E6462C355
:2003E00001C12E6402C301C12E64A382716400708180111E564150B054B0007140804022C8
:20040000574154A064B0F18001224B45007000224B4160B04861067305720B720E7250B054
:200420000071818060B050A09280D0EE41935293FA6741227F458080F1C11004301601111B
:200440000114016CA061A061A061A061A061A061A361A761AD61B161A061D362D662F0C0CA
:2004600002043231412A1214321601112114016CBF61A161BF61A561AF61A961A061A06122
:20048000F462B361F462A561B561A961A061A061C561A161C561A561AF61A961A061A06104
:2004A000B861D665B8618064B86180644865D864B86192644865EC64B8610065B8610065FD
:2004C000D6652C65B861FE66B8610065FE66B161B0B0BB61B1B00673057230B05F611078EA
:2004E00051C43278537824C5CA61207851C442785378C4C4A491609271928292939215C06C
:200500004592F0C3B092F0C0A090B861E3B0CF6654A0F0805022E04540800022C346D8612F
:20052000E3A000C8B091A98150B0918041229E466282F11212042F101F312F146682D622FE
:20054000F34580C0F46180C120140D6F6D39DE10F4C34E0482C082312E006D39A2C0823162
:200560002D006A828A39FA067082803180390BC00B18BC10AC18538239149B146082F0061C
:20058000011010311014A18110140C1480824039F006021011C0013010C001180218823144
:2005A0002100C126E191C0CEFA67C6225A4603B013B063B053B041800122C34604821492A5
:2005C0002582B51C394E9518B591F08010222B429C623D9110B13E9110B1E08000224346F2
:2005E000E6224342E0B09518B5915F92A981F914F0805022D64110229C46D962CF66A9811C
:2006000055825914F0C0007163B0536AC6222B42E0A0726280828039F006021011C0013037
:2006200010C00118021882312100C126D19187824739873903B013B063B053B0007163B041
:2006400002B012B041800122C346F48114922582B51C804E9518B591F080102272429C6291
:200660000482149224824518751C8A4EF080102272429C623D9110B1E08000229246E6229D
:200680009242E0B0B5915F92A981F914F0805022D64110229C46D962B0CEFA6763B080824C
:2006A000F006021011C0013010C00118021882312100C126E19113B003B063B053B064B060
:2006C00054B0007141800122C34663B064B0F0805022D6414022B1460182119221829118CD
:2006E000B19131B0B162E3A0E0A05182B2818231823DA0EE41935293FA6703A000706282AA
:200700004239F2064B60A2804B64B86150B00071B861908241800122C34604821492258275
:200720009518B591F18011229C46DA6A41800122C346048214922582C51C4E4A9518B591D0
:20074000F0801022E6429C626078E091D0C25092C4C47078E1C232C103CBCA61E2A0E3B000
:2007600054A0F0805022084740800022EF470063E3A040A07D826082F1C0100409106A82CB
:200780004A391A046082803910040E10AB10BC10C2104B6490CEFA6713B003B0A16753B0A3
:2007A00050B054B064B013B081678A67007141800122EF47F08010223647F022DC4764B092
:2007C0003122264363B0A7675A67266364B0BF818F318F3D80DE4F93FA670071418001221C
:2007E000EF4764B0F08050224F4363B06182C1224A47A7676182D1223D475A673D63B181D6
:20080000C2818131813D8231823D70EE41935293FA67FE62008210922382D318674FF30B73
:200820001316E31C804B139233823B146C63E31C804B139233823B18AB1C7C4F9B1C7E4BC4
:20084000BC1C8043B2106082D0227943F080102280474B6481678063AB1070639B107063BC
:2008600000708082F1C0100463B00071846BBC10E0B0007002821292228251821218A18117
:20088000121891828131813D121C984BE2B032B0F1C721149C4F12C8B291C29131B0E1B06C
:2008A0000070081206C000C8B091C091007051820082109220821018A18110180614E18098
:2008C00092828231823D201CBB4BE2B02122BF4732B060CEFA672122BF43E2A032B0818258
:2008E0004139F0C00104011ECD43181610C01030081CDB476010103C0610F1C76114D14FF7
:2009000016C8B691C1818131813D161CD84BC69131B006C00812007003A063B064B0EFB0BA
:200920002C65007140800022EF4764B00065EFA0007140800022EF4764B003B02663E3A039
:200940005182B2818231823D50EE41935293FA6703A00070309320830022FB4710B30070B7
:20096000C2F81C8020312032401E70470B684C688D68CE680F69D1F814C070476141002188
:20098000D9410021554200210B4400215B440021914000219D400021B5400021DF440021EA
:2009A000D94000210B410021F940002151460021654600217F4600214541002101470021BC
:2009C000FFB581B003480A9D0047F8B58446024813460047437F00004551000070B51D46B8
:2009E000004C2047812202007046800A054A8D2804D01047034AE4320120049002490020AD
:200A000008701047696F0000F801002103490888034A7146904200D0891C0847A6010021D7
:200A200004140000F3B583B000480047170B020005480268520803D3044BDA60002202601C
:200A40007046001D0047000064470021400300210B487022016891434022114301600948C2
:200A60000047094801780C4608229143017000F003F80548047010BD10B5044800470000D3
:200A8000183004400F710000B30000210356000010B5014800470000DF0900000348044948
:200AA000C068C005C00F88470249084740030021D1870000CD530000F8B514461A46069B2D
:200AC000009313462246FFF77BFF009000282DD12E494868002829D009884900091B4143D2
:200AE0002B48C0684408640022791820801AC6B2012080040818C70C65793146254800F07C
:200B0000D3FA244801228319691E8A40002018218E1B07E041000919C98879438918E94069
:200B20001954401C8642F5DC1B4880470098F8BD10B5FFF74AFF044614490020174A486008
:200B400010680088000B03281DD060071BD41068C07B002801D0022815D11320C0010C4A16
:200B60000880D068C02804D0D82804D0FF38393809D10B4800E00B4848600B48D0601821B9
:200B8000044800F091FA204610BD00005C47002128000021000000214D7600000801002140
:200BA000913B060029FD0300FD9000000188BB4A8918032906D8BA487C210185B9494162AA
:200BC00001207047B8490847B84830B4014640310A7C022A16D10268D2794A7502689368DF
:200BE000024680329360487D02280BD0002809D0C41E062C09D8AA49800040184038806B1A
:200C000018189060AA4830BC00470320C002C8800220087230BC0320704770B5A3480446A6
:200C20004034A57D012D12D0017D4906CA0F80210A54217C00290AD1603040788008C00731
:200C400002D0E07C000702D50120A07500E00020A07398488047A57570BD70B5934C96486F
:200C6000254650358047022809D14034E188934A914204D1E97C890601D4911DE18070BD52
:200C800070B58A490A8908465030D2B2282A07D10A68D2684261937AD27A12029A1802835A
:200CA0000378874A002B10D08379012B0DD1037C5B09DB0709D0097D824DC1746C7F202084
:200CC0002043687790476C7770BDFF21C174904770BD10B57C48754C804702280ED1214611
:200CE0004031CA88754B9A4208D1CA7C5209D20704D0227D920601D49A1DCA8010BD70B56F
:200D00006A4872494030C07C4009C00707D06D4D6F482C8B2043288388472C8370BD884723
:200D200070BD70B5614C6B49264640363579A8004018406B80470A2D214610D054310A7879
:200D40009309DB0704D0B2730A7803231A430A702189CAB22B2A01D32839218170BD53319A
:200D6000EDE752494031087125281AD008DC0A2811D00B2811D0182811D01E2806D114E0A6
:200D80002A2810D03C2806D03D2810D0514980004018406B70475048704750487047504898
:200DA000704750487047504870475048704750487047F8B507463D4C4E20005D8509EE076F
:200DC000FB25002E17D0267D3407240F052C03D00124204202D012E00224FAE7C00905D0D9
:200DE000700603D54868800F012808D05B085B005208520003E0002801D02B402A40062B19
:200E000003D01020022B10D010E002232A403846FFF7E4FD002807DAC200B91A2039497E30
:200E20001422114200D10020F8BD024303433846FFF7D4FDF8BD70B5FFF7F4FD05002BD1F1
:200E400017491A480968403082892A4B9A4223D1CC690121090700228C420CD226494B7937
:200E60005B0706D5C868254A4000401C1060CC6012E0828110E0828175202149C0008847E8
:200E80000646204600F0B6F8002801D00325ED021B49B0B212398847284670BDD5E7FFFFBD
:200EA00008010021190602002506020060010021A5450200FD2C0200493B02000414000083
:200EC000FD380200A8000021FB2402004F1D020020200000C04F0200CB430021A7430021F8
:200EE0007B4300212943002103430021C342002171420021FFFF00004003002164470021F7
:200F0000E5400000F8B5204D20482C88C06A204E01070120090F40020227220B082920D0E4
:200F20000DDC01290FD0042914D11A49D20712D0224682432A80012088472C800DE00C29FA
:200F400001D00D2906D17069B84370610120124980020860F8BD01208847706938437061DE
:200F6000F8BD610AC907FBD0D107F9D00B4CA0470B490122486A920310434862094948631F
:200F80000020A047F8BD0000680000210060044000110440057D000080E100E0B745000054
:200FA000C00200210040044010B5034CFFF770FD20680028FAD110BD001104400B490A78E0
:200FC000FF2A04D10A4AD27A1207120F0A70084940318875704705490978FF2905D0000974
:200FE000000108430249403188757047A502002100620840F1B5264E00207479F768F060ED
:20100000244825460088C00502D50420044374711D22214B002100989847002809D1F168E7
:20102000031F002904D000990968CAB22B2A03D01846F7607571F8BD8905890F022902D16F
:20104000FB210C40747104210C400D40AC42F2D0124A09039160F8BD70B504460088152893
:2010600003D00F492046884770BD75200D49C000884705466068FFF7BDFF002801D0872400
:2010800000E00124074928461C318847204670BD4003002184020021994A0000001104409B
:2010A0000F270000C745000003B40148019001BDDD89000000000000000000000000000039
:2010C0002DE9F8436A4C6B496B4E20700020086009216A4801700D2141804FF40071818093
:2010E000674868490860377867480770FF2F7178417008BFFF29B2788270F378C370357934
:2011000005717679467114D1FF2A08BFFF2B10D1FF2D08BFFF2E0CD15C490A7802704A787B
:2011200042708A788270CA78C2700A7902714979417157490278574D574E584F0A704278ED
:201140004A7082788A70C278CA7002790A7140794871FF2028706870A870E8702871687194
:2011600000204F490880F06B4E4940780870F06B01784D480170F06B4C49807808704C493E
:20118000F06B90F83C0008704A49F06B90F83D000870F06B4069017947484A1E0270F06B4B
:2011A0004649C0783870F06B8069086008B923F0B3FFF06B4249C069086008B923F0ACFF98
:2011C0001BF0B2FEF06B3F49006A086008B923F0A3FFF06BDFF8F080406AC8F8000008B95C
:2011E00023F09AFFF06B3949806A086008B923F093FF0AF02FFF07280BD112F075FE20786E
:201200004FF480410BF038FDBDE8F243002023F083BF2F4801688847D8F800100A68814683
:201220009047D8F8002052F8041F00208847F068284A0188387801431180484626490A6844
:2012400090470C21254822F00FF8284621F078FB22F022F82248002101604FF6FF71818044
:201260004FF400512078BDE8F4430BF005BD00BFEC7A0020007A0020D04F00504079002082
:20128000B63F0050047A002030790020E81200504879002028790020CC8D0200F27A0020CF
:2012A000B27A0020EE7A0020EB7A0020ED7A0020017B0020007B0020F37A0020F8790020F9
:2012C000087A00200C7A0020F4790020107A0020D8250020B47A0020DC2500209C780020CF
:2012E0005879002052EC111B2DE9F04F57EC106B1346ADF13C0D10460693B846089220F0A9
:20130000004523F0004307913A4651EA030468A322F000470D9300F08580674C944208BF8F
:20132000002E7FD060A3654A0C93BA4208DBBA4200D12EB9AA4203DB9446AC4517D1B1B16D
:201340004146984698E80C00304608F0B3FF894682460899079898E80C0008F0ABFF0B4626
:2013600002464946504608F0A5FF00F039BC564AB8F1000F4FF000090E9225D5504AAA42BF
:2013800020DDAC4220DC4F4B2A15AB42A2F2FF320BDD002958D1C2F1140245FA02F303FAA7
:2013A00002F2954210D11A4607E0C2F1340321FA03F202FA03F3994206D102F00109C9F1E6
:2013C000020901E04FF0020900293DD16246AA4225D0AC420CD1002807D50D9803C843464F
:2013E00032460CF09BFA8846064641463046F7E3B0F1804F04D14346099632460A93EBE3A3
:201400000E99814220D1B8F1000F1DD44346324643EC102B0BF088F951EC100BE0E3391B72
:201420000E4301D10D9CFFE3BC4206DD002806D5014681F00043079A27E0002802D50C98D4
:2014400001462FE00346F6E728F00043B2460193EEB96246BA4203D0002F18BFBC4216D120
:201460000028324605D50D9803C80CF057FA0B460246B8F1000F08D53F1B59EA07000CD087
:20148000B9F1010F08BF83F000431046A9E34FEAD876761E59EA060318D125F0B5FE2122D8
:2014A000CBA102600C46BFE30000000000000000000000000000F03F0000F03F0000F07F9D
:2014C00000004043000040410000E03FA9F101010E4314BF0D99C0A106C9C34E0991AE42B8
:2014E0000A92C0F26581B7F5801FA8BF002509DA0199BBA20CCA50460EF012FE6FF03405F5
:201500000F468246B94905EB2755C7F313002746A5F2FF35814247EA000707DCB44981429D
:20152000DABF6D1CA7F58017012400DC0024B14800EBC40090E80C000197394600905046C8
:2015400008F0B8FE02460D980B4603C80CF0E6F90290009890E80C0088463946504608F070
:20156000A4FE029A8946834643460EF0D9FD03900C9E04910846059096E803007B1043F044
:20158000005101EB844101F500210C46059906460020324623460EF0C3FD0B46024649460F
:2015A000584608F082FE8346009890E80C0089462146304608F079FE0B4602463946504667
:2015C00008F073FE059B00220EF0AAFD0B4602464946584608F069FE029A43460EF0A0FD56
:2015E00004468B460398049902460B460EF098FD884681460B4602460EF092FDD1A20CCA68
:201600008A460646414648460EF08AFDCFA20CCA08F050FE43464A460EF082FDCDA20CCAAC
:2016200008F048FE43464A460EF07AFDCBA20CCA08F040FE43464A460EF072FDC9A20CCA9E
:2016400008F038FE43464A460EF06AFDC7A20CCA08F030FE0B460246514630460EF060FD78
:20166000DDF81480039A8246894600204346414608F020FE5B4622460EF052FD0B46024698
:201680004946504608F016FE07460E460020414602460B460EF044FD02910FF26839019033
:2016A00099E80C0008F006FE33463A4608F002FE8A4605994FF000084046534602460EF096
:2016C0002FFD0B9105905B462246514640460EF027FD99E80C008B4604465146404608F0A8
:2016E000E4FD029B019A08F0E0FD0B4602463146384608F0DAFD049B039A0EF011FD0B4606
:2017000002465946204608F0D5FD83468A46284621F0D0FF0E4607460B99059853465A46B0
:2017200008F0C8FDB9A20CCA894640460EF0F8FC0B9B059A0C4605464046494608F0B5FDD3
:201740000B4602465146584608F0AFFDB1A20CCA0EF0E6FC0B4602462146284608F0AAFD01
:20176000009A20320CCA08F0A5FDACA20CCA0C460546494640460EF0D3FC8A468346234668
:201780002A4608F097FD009A10320CCA08F092FD33463A4608F08EFD404633463A4689464A
:2017A00008F083FD009A10320CCA08F07EFD70E0A049A942C0F228829F49B94200F30282B2
:2017C000BC4219DA002840F3B98096A08046FDE1000000000000F87F000000000000F0BF84
:2017E00000000000000040430000E0418F9803007AB60B00007E02000D9A01990CCA5046B3
:2018000008F053FD89A20CCA83468A460EF088FC0C460546514658460B4602460EF080FC7F
:20182000E2A20CCA88468146514658460EF078FC02460B46DFA003C808F037FD53465A46CA
:201840000EF06EFC02460B46DCA003C808F02DFD0B460246414648460EF062FCE2A20CCABA
:201860000EF05EFC0B4602462146284608F01DFDE3A20CCA0C460546514658460EF050FC19
:201880008A46834623462A4608F014FD00208946804653465A4608F008FD0B4602462146E2
:2018A000284608F002FD0646DDF818A007980D4642465346514608F0F8FC47464B463A46B6
:2018C0000EF02EFC079A8B4604465346294630460EF026FC0B4602465946204608F0EAFC0A
:2018E00083464B460E463A46404651460EF018FC8946CDF800B082464B4631465246584641
:2019000008F0D8FCCD4A0C460746A24232DDCC4924F00040814248DCE048201857EA00055C
:201920000CD1214638464B46524608F0BEFC0B4602463146584616F076FC36D8DDF8308051
:2019400044E1C046EF4E454A287ECA3F65DBC9934A86CD3F01411DA96074D13F4D268F512A
:201960005555D53FFFAB6FDBB66DDB3F033333333333E33FA01A57EA000540F02581B1A22B
:201980000CCA3146584608F095FC05468B464B4652463846214608F088FC0B4602465946F5
:2019A000284616F083FCC0F00F810E9824F00041884243DA0C9A0CCAB94BC4F30A504FF43E
:2019C0008017A0F2FE31002C47FA01F004EB0001C1F31305C1F30A50A0F2FF3045F48015F8
:2019E00043FA00F3C0F1140021EA030345FA00F548BF6D425046494608F057FC89468246F0
:201A00001DE0C0460000000000000840F5015B14E02F3EBEFD033ADC09C7EE3F000000E018
:201A200009C7EE3F000000000000F07F44DF5DF80BAE543E0000F043FFFFEF3F45460098F5
:201A400031464B46524608F035FC8B4640464B46524608F02AFC024600980B46314608F07F
:201A600024FC7AA20CCA0EF05BFB7AA20CCA82468946404659460EF053FB0B4602464946DE
:201A8000504608F017FC75A20CCA0E460746594640460EF045FB04468B4633463A4608F0A8
:201AA00009FC884600900B4602460EF039FB6DA20CCA894682460EF033FB6CA20CCA08F074
:201AC000F9FB4B4652460EF02BFB6AA20CCA08F0F1FB4B4652460EF023FB68A20CCA08F0E2
:201AE000E9FB4B4652460EF01BFB66A20CCA08F0E1FB4B4652460EF013FB024600980B46AD
:201B0000414608F0D2FB824600985B4622468946414608F0CAFB0B4602463146384608F077
:201B2000C4FB044600988B464B46524641460EF0F7FA56A20CCA0E4607464946504608F008
:201B4000B4FB0B460246314638460BF0E7FE009E894682465B462246414630460EF0E0FA55
:201B60000B4602465946204608F0A4FB0B4602464946504608F099FB4346324608F095FB5D
:201B800002460D980B4603C808F08FFB8846024608EB0553B3F5801F1EDA0B46284643EC2C
:201BA000102B0DF011FB53EC102B15E0000000000000D03F555555555555D53F0000000051
:201BC0000000E03F002813D50FF2C80825F01CFB2221016098E80C000A9909980EF0A0FACD
:201BE0000B46024622E0C046FE822B654715F73F25F00AFB22210C9A01600CCAECE7C0468F
:201C0000000000604715F73FBC4204DC002806DD20A0044604E0002848BF1EA400D40C9C8E
:201C200025F0F2FA2221016094E80C00194610460FB041EC100BBDE8F08FC04600009040C1
:201C400000CC9040FE822B654715973CEF39FAFE422EE63F396CA80C615C20BE0000000000
:201C6000432EE63FD0A4BE726937663EF16BD2C541BDBBBE2CDE25AF6A56113F93BDBE166A
:201C80006CC166BF3E5555555555C53F0000000000000040000000000000F07F00346F3F76
:201CA000FFFF0F002DE9F04F85B0804611F8010BDFF8E827009008F1FD00009B182B08F16F
:201CC000E70B08F1660508F20D1A08F5B07608F1860908F59C7408F5C67700F2CD83DFE892
:201CE00013F019006C0082018900CB03CB03F300A50308011D01F70004014901CB03CB0310
:201D0000A001CB0386016B01B103FD02FD025502CB03A10211F8010B89F80000022208F134
:201D2000880024F035FB0146022208F18A0024F02FFB0146022208F18C0024F029FB01463C
:201D4000022208F18E0024F023FB99F80010B9F80220490089F800105200B9F80410A9F8A0
:201D600002204900A9F804100222B9F808100901A9F80810014608F1840024F009FBE98B43
:201D8000B8F80800091A89B247F6FF72914228DAB9F80600B9F80410B9F80820401C4900B0
:201DA0004843904201D33B201EE1012028770020A8F81E00012020706DE3052208F1610078
:201DC00024F0E6FA0146022208F1920024F0E0FAB9F80C10B8F80800091A89B247F6FF729A
:201DE000914280F24A82012189F80A100020A8F81E0071E29BF81600C2070BD49BF80D00F3
:201E00001A2101288BF80E1002D1FF220D213CE00D2101E200202870082201208BF81100D7
:201E200008F1A80708F1B00024F0B2FA0146022208F1B80024F0ACFA01460822384624F0B8
:201E4000A7FA04460821384623F0C3FC08F19C0704222146384624F09BFA0421384623F018
:201E6000B8FC08F1A00024F0E5FC08F1980024F09BFADFF82C06018841F0800101809BF88E
:201E80000D00012807D1FF220421404605B0BDE8F04F17F09BBB6C7C0F2C18BF142C03D065
:201EA0000E2C18BF0C2C0DD12F7C40461CF04CF80421404619F0CAFB012F12BF2146AC7677
:201EC000FD21A9E10421A7E101208BF80F00E2E200202870A8718BF800000B2101208BF812
:201EE0000D0000208BF8010096E101208BF81000D1E2002302F10904CF5CE45C2743CF5438
:201F0000541CE45C2740C7545B1C082BF2DBA879002847D0404619F0CFFBB2E2002302F1B5
:201F20000904CD5CE45C2543CD54541CE45C2540C5545B1C082BF2DB02208BF815009BF8B0
:201F40001700010703D440F64800B081F08150788106CDD530891B2804BF71891B2907D1A5
:201F6000B089B0F5A47F04BFF189B1F5A47FBFD0142151E19AF80000012811D011F8012B93
:201F80008AF8032008F58970022224F001FA0146022208F58A7024F0FBF901208AF8000066
:201FA000A879002800F09F819AF8021000292BD1404618F057FA64E29BF81600DFF8E45422
:201FC000C10609D412218AF80C1040461CF072F9002819D1287857E240461CF091FF00285A
:201FE00012D1287850E208788AF80B007EE10878307048787070287C01280CD1697C0F3929
:20200000012902D9C91F02D045E2607343E2387B40F001002EE205B0BDE8F04F002023F022
:202020007BB89BF81600DFF87C74820709D40F218AF80C1040461CF03DF90028E6D1387872
:2020400022E208784A7800EB02202082CA78887800EB022060824A79087900EB0220A082E7
:20206000CA79887900EB0220E082087A20768A7A487A00EB022060830A7BC87A00EB02200B
:20208000A0838A7B487B00EB0220E0830A7CC87B00EB022020848A7C487C00EB02206084B0
:2020A0000A7DC87C00EB0220A084487D897D00EB0120E08408F5AA700490608B0390207E22
:2020C0000290B8F808000190E08A0090A38A628A218A404617F0B8FAA8B19BF816004107DE
:2020E00009D40F218AF80C1040461CF0E3F8002849D13878C8E1404605B0BDE8F04F1E22CE
:202100000F211FF021BF608AA9F80400A08AA9F80600E08AA9F80800022089F8000000206A
:20212000A9F80200B8F83400C01DE883B8F83210B9F80400B0EB510F02BFB9F80600B8F806
:202140003410884202BFB9F80800B8F83610B0EB111F19D0287C012804BF697C0F2905D0CB
:20216000687D18B10F21A976FE2155E0FC21404619F06CFAE08A0090A38A628A218A98F8AE
:2021800006000FF0C9FE86E1102145E09BF8170010F0090F03D116218AF80C106EE148783C
:2021A0000A7800F0070002400A7008787A7B0240FA7210D0501E02420BD0510704D5B87BF6
:2021C00010B10421F97204E00220024219D14008FBD1F87A08B9B97AF972F87A042803D123
:2021E00040461AF0EEFFB083F87A23F0C9F93871B28BB97B01231DF0C3FE318B814202D289
:2022000008E0F872E5E7B28BB97B387901231DF0B7FE014679801721404605B0BDE8F04F01
:2022200019F014BA48780A78824207D100F00700104008702ED0431E18420FD01E22182119
:2022400040461FF081FE98F80610002300221E2011F0C8FF387B40F040000BE1F87247F6C3
:20226000FF728878C97800EB012038813989B8F80800091A89B2914201DB282134E00120E2
:20228000B871F87A042803D140461AF09AFFB083F87A0AE0687C162806D1BA7A98F8061018
:2022A0001346002011F09EFFB87A3871B28BB97B387901231DF064FE318B814206D3B28BE2
:2022C000B97B387901231DF05BFE0146387B798040F04000387301212170DCE0142B04BF10
:2022E000A879002806D13D218AF80B1001208AF80A00D0E008784A7800EB02207082CA78E3
:20230000887800EB0220F0824A79087900EB022030828879C97900EB0120B08208F5B0719C
:2023200008F5B0708A8AC089B97A904288BF1046042905D140F691229042B8BF4FF4296080
:20234000F28BF0839042B87A14BF01250025042803D140461AF035FF08E008F5B07008F5A5
:20236000B0718089CA8A904288BF1046B28BB08308F5B071904208F5B0704A8A008918BFBF
:202380000125904288BF1046328B3083904218BF0125B28BB97BB87A01231DF0F1FD318BEB
:2023A000814206D3B28BB97BB87A01231DF0E8FD0146798008F5B07008F5B0724189108AE8
:2023C000728B814288BF01467183914298F8063014BF0120002005438A4233490A6802EB1F
:2023E0004311728B8041121DC00F0A7610B1404620F090FB009814280ED145B1F08B0090B7
:20240000738BB28B318B98F8060011F049FF1521404615F08EFF34E01DB1387840F00800CE
:202420003870397841F02001397034E008780E280ED00F2809D0122804D014280CD016282C
:2024400012D028E00020207225E00120207322E003208BF815001EE0387840F002003870E2
:2024600040F01000387016E0387B40F00200387340F0100038730EE08AF80C3040461BF0C6
:2024800019FF40B9074800784FF4804105B0BDE8F04F0AF0F1BB05B0BDE8F08F887600202A
:2024A000B67A0020EC7A0020DC7900202DE9F84F012020F05FFA012819D1DFF8AC66307846
:2024C00000210FF001FE5FEA000904BF002022F023FE002089F8080009F1040015F05AFA75
:2024E00007F054FB050003D1812019F05FFA37E30120687105F59774DFF870064178491C36
:202500004170A879DFF8681689F80A0030780870402010F091FF2860D9F854104A78D9F8A9
:202520005000D1061ED5816C0A681179032904D00CBF0120002022F0EFFDD9F85000816C80
:2025400090F86C000A6802F1080A01281CBF002022F0E2FDD9F850102A68486F00F5B0607C
:20256000D06041E0C16E0A681179032904D00CBF0120002022F0D0FDD9F85000C16E90F81C
:2025800098000A6802F1080A01281CBF002022F0C3FDD9F85010DFF8DC25D1F8A000296833
:2025A000DFF8D435C8609AF82660032E19D8DFE806F002050C0F00F5B06001E000F534707B
:2025C000C8601088E087108808E000F5355001E000F6B870C8601888E0871888A5F87401FA
:2025E00002E000F5B060C86006222868DFF88C65C168DFF88C8501F59071C1600AF1020125
:202600009AF80000C0F38010207005F594701FF067F904220AF10E0105F124001FF060F936
:202620003068AF7900F10C0304220AF10E0103EB47101FF055F93068AB7900EB43100322E9
:202640000AF1120110301FF04BF905F12C079AF81500B87002220AF1160105F130001FF076
:202660003FF902220AF1180105F132001FF038F902220AF11A0105F134001FF031F9388924
:20268000688402220AF11C0105F136001FF028F9B87879894000B8700901B8887981400098
:2026A000B88089B2F8884000F88003046A8C521CDB0B5A438A4201D280B230B998F8000037
:2026C00080210AF0D9FA3B2154E105F12E01284622F046FF0520A881284623F0C1FA052260
:2026E0000AF11E0105F161001FF0FAF89AF823004009387022F086FB6882B9F82A10401A00
:20270000A08105F161019AF82300DFF8784400F01F00F8734FF01C0A28461EF04EF9D9F885
:2027200054104A78D9F85000D1064CBF816CC16E41F62102086800210171A97920681AFB38
:2027400001F142520022A9791AFB01F101444A80A9791AFB01F108444260D9F85410DFF876
:2027600028044A78D1060DD5DFF820148A7851060AD5DFF81C140A8841F20A439A4208BFB3
:20278000DFF81004C5F89C01D5F89C11284688472168AB7901F10E021AFB03F3D054A9793D
:2027A00020681AFB01F108440021C173DFF8E803017889B1B88878B900217973012028812C
:2027C00068812846D5F89C1188472168AB7901F10E021AFB03F3D054A87921681AFB00F0CC
:2027E00001F10E02125C7A73D9F854104A78D1061FD505F5CB7B9BF8000008B922F08CFC8C
:20280000A97920681AFB01F108449BF800104A1E0274A97920681AFB01F108440021417467
:202820002068AA7900F112011AFB02F2002088522CE0D9F85010236891F840201844027463
:20284000A97920681AFB01F10844D9F8501091F841204274D9F850002168AB79403001F17A
:2028600012021AFB03F34188D15205F5CB710078012200F0030082400A70D9F8502092F882
:202880004000800814BF0120022008712168A8793368DFF808B301F114021AFB00F103EB0E
:2028A00040105050A97920681AFB01F10844BC498161DBF814000078D6F800C095F806E0E4
:2028C000C107DBF8141009784CBF102000208A07DBF8142012784CBF202100215307DBF8A1
:2028E00014301B784CBF402200221B074CBF80230023084310430CEB4E1C184340F00F00E6
:202900008CF808000B223068A97900EB411042723168A87901EB40110422A2488A720178D8
:20292000012906D13268A87902EB40110122CA7207E0DBF824003168AA79407801EB4211AD
:20294000C8723068A97900EB41101F2202763168A87901EB401100224A76A8790FF0DCFFBA
:20296000AA79316852018850AA7931685201885820B90721284622F0F1FBF1E08A48AA794E
:20298000016801EB021024F02FFB874BA87931681A6801EB401102EB00104860A9793068E8
:2029A00000EB41125168F963AA79520181587964042198F800000AF05FF9D9F854004178B3
:2029C0002268C80648BF02200AD4A8791AFB00F01044007C00F00300022814BF0420062068
:2029E000B988DFF8B4C143189CF8000010B109B9F8881B18688A95F806C058434FF4C871C9
:202A0000B0FBF1F0401C1AFB0CFCAB6168616244D5F800C0DCF80CE040F6C41101FB03E3FC
:202A20001B1AA3F5A8639360AA7920681AFB02F283189A682B689A6000F10C03AA791AFBB5
:202A400002F20C309B5C03F0EF038354A87922681AFB00F002F10C030C321B5C03F07F03B7
:202A60001354A87922681AFB00F002F10C030C321B5C03F0F00343F002031354AA79206858
:202A80001AFB02F21044427B02F0F00242F001024273AA7920681AFB02F2024490682A68CA
:202AA00010613068AA7997F802C000F1140368694000520111FB0C0000F5F660985095F855
:202AC000960104280DD13068AA7900F114034FEA421C143053F80C20AB795B0102F5616206
:202AE000C2503068AA7900EB4210C37C03F0F00343F00403C374DBF830003268AB7900680D
:202B000002EB4312FB8843436427B3FBF7F35943A1F59661D161A879316801EB4010C17EB7
:202B200001F0F00141F00401C176A97920681AFB01FA2968504448600E21284618F086FD97
:202B40001A4907200870484623F018FDAA79002148461AF093FD2868154941611549816181
:202B6000BDE8F14F04F0D6BEFE7A002038790020FF7A0020B87A0020BA7A0020DC790020CB
:202B8000EC7A0020E0790020ADE9010088760020C07A0020F1DE010060790020CC8D020003
:202BA00074760020F07A0020E8790020EA7A0020C10E0200020480802DE9F8430246107884
:202BC0005168002800F01483401E00F00983801E00F0498308380C2800F24883DFE810F061
:202BE0002002A80040033C033803840028036C00180348001403100310004FEA0808C04647
:202C000042F20C3442F21430C2F20004C2F200002168006888421FD146F6C8120220A721B1
:202C2000C2F2000211F06CFD42F23C31C2F20001087028B92068401C206017E34FEA08081E
:202C400042F22831C2F200010868401C08602068401C20600AE3C04642F22C31C2F2000161
:202C60000868401C08602068401C2060FEE2C04647F2B06142F6A6230520C2F2000100228F
:202C8000C2F20003086147F68420C2F2000000681A70012224F01EFA50B91AF061FE47F68F
:202CA0007020C2F20000006824F0FAFADEE2C046FEE74FEA0808C04642F23A3443F2593105
:202CC000102081220123C2F20004C0F20201009418F01AF9C0B2002800F0C882102020704D
:202CE000C4E24FEA0808C04647F2B06142F6A6230520C2F200010022C2F20003086147F63B
:202D00008420C2F2000000681A70012224F0E2F950B947F67020C2F20000006824F0C0FA97
:202D2000A4E24FEA0808C046FEE74FEA0808C04647F2545542F248370320C2F20005C2F265
:202D400000072870386829460CF0EEFF42F24C36C2F200060028307076D0696845F610142E
:202D60004FF4A072C2F2000404F5A07013F0A2FAA86845F6D0414FF4A072C2F2000113F035
:202D800099FA286947F6D801C2F200014860E8680860386816F010FE002542F210313570F1
:202DA000C2F20001086842F23032C2F20002401C086012782B46A0204FF4A0710EF0D4FFFE
:202DC00042F23330C2F2000002784FF4A0712B46A0200CF009FB42F23230C2F200000078E7
:202DE000002841D042F2EC26C2F20006306847F25415C2F200054FF4A071286020460FF066
:202E0000F7FF47F62010C2F20000C0ED010A80ED000A90ED010ABDEEC00A10EE100A4FF414
:202E2000A07102B220460BF01FFF306847F25811C2F2000108602A6847F25C11C2F200010A
:202E4000801A086010E0C04645F6502000214FF4A072C2F2000016F074FD42F21C31C2F2F9
:202E600000010868401C086042F2EC26C2F20006306842F2F42847F6E809C2F20008C2F297
:202E80000009C8F80000B9F9000046F6C817C2F20007011287F8A01087F8A10099F80400EA
:202EA00042F20C34C2F2000487F8A2002068000E87F8A3002068000C87F8A4002068000AC4
:202EC00087F8A500206845F61015C2F200054A46394687F8A60028461EF072F905F1A0007C
:202EE00007F128014A461EF06BF905F5A07007F150014A461EF064F905F5F07007F1780196
:202F00004A461EF05DF9306842F2F821C2F200010860D8F8002042F2FC21C2F20001801A2B
:202F20000860384613F030FC0220A7213A4611F0E7FB42F23C31C2F20001087020B9206800
:202F4000401C20601AE0C046087842F23D3242F22431C2F20002C2F200011070086847F255
:202F60006812C2F20002401C0860106824F098F9206842F21431C2F20001086042F2383086
:202F8000C2F200000078C8B344F6004729464FF42072C2F20007B81C13F08CF945F69031B2
:202FA0004FF4207207F28220C2F2000113F082F942F62900388020682068000CA7F8020593
:202FC000206842F21031C2F20001A7F804050868000CA7F80605086842F23932C2F20002AC
:202FE0000021A7F8080547F6AC20C2F200000068117040F20A52394624F0ACF847F2481107
:20300000C2F2000130680A6847F24C13C2F2000347F250111860C2F20001801A086025E1D3
:2030200047F26C10C2F20000006824F039F942F2EC25C2F20005286847F69824C2F200043A
:2030400047F24811C2F200010860206824F0FCF847F27011C0B2C2F20001087040B946F6A3
:2030600020100021A722C2F2000016F06AFC54E0206846F620160022C2F20006314624F081
:2030800079FA286842F20034C2F200042060304614F096FA96F8A01096F8A10047F6E007F2
:2030A000C2F2000740EA0120388096F8A20045F69038C2F200083A464146786030461FF0FF
:2030C000DBFC06F1280008F1A0013A461FF0D4FC06F1500008F5A0713A461FF0CDFC06F15D
:2030E000780008F5F0713A461FF0C6FC286842F2043242F24031C2F20002C2F2000110602F
:203100000968236842F20832C2F2000242F24434C2F200042160C01A106047F2545442F24B
:2031200048350320C2F20004C2F200052070286821460CF0F9FD42F24C36C2F2000601286C
:20314000307011D045F6101000214FF42072C2F2000016F0F6FB42F21831C2F20001086850
:20316000401C086082E0C046616845F610104FF4A072C2F2000013F09DF8A06845F690315A
:203180004FF4A072C2F2000113F094F8206947F6D801C2F200014860E0680860286816F054
:2031A0000BFC002447F2641142F23032C2F20001C2F200020123088812783470401C08806F
:2031C000A02120460EF0D0FD42F23330C2F200000278A021012320460CF006F946E0C046C6
:2031E0000888B0F5304F41D108461EF005FE3DE00888B0F5304F39D1084616F061FB35E00A
:2032000021F04AFE32E0C0461DF0B6FB2EE0C04642F23A3043F2296181220123C2F2000093
:20322000C0F202010090102017F06EFE1EE0C04647F2B06147F684200422C2F20001C2F2E8
:2032400000000A610068012223F044FF0EE0C04620F0B6FC0AE0C04608F066FB06E0C04637
:203260000DF06AFF02E050681BF0EAFEBDE8F8832DE9F04F41F624748346C2F200049BF803
:2032800002106069ADF12C0D0A290FDC0A2900F0FF80002900F06482491F00F04D82491E2F
:2032A00000F00A82C81E00F0EB8185E20B3900F0CF80C91E00F0BC80491E1DD0481E40F069
:2032C0007B82A069002800F0F4810168002900F0F0814FEA0808C046C87A48B9002900F0BD
:2032E000E8812078042109F0C7FCE2E14FEA080809680029F0D1DCE1D84638B1416829B13E
:20330000BBF804000B4600210A469847A179607831B1B8F80400E17922F03DFA01204CE2DB
:2033200030B9B8F80400052122F035FA012044E2B8F804001DF004FD071C00F03D8298F81E
:203340000A00400810D3797971B101290CD0D8F80C00800A08D20022B81D01F00101009262
:2033600013460DF0CDFF30B9A07A02280CD198F80A00000908D2B8F80400032122F00BFAB5
:2033800000201AE24FEA0808B8F8049097F805A00C2023F001FB074608F10800002F06464C
:2033A0002BD0A7F8089087F80AA000213960F9724EB108211CF048F9786028B9384623F0CE
:2033C00003FB0120F9E17960A069A8B10246106878B101464FEA080808680A4648B101681E
:2033E000024631B108680A4618B1016802460029F2D11760384603E0A761381C00F059817F
:203400000121C17232464846514609F031F86069002800F04E814068002800F04A81034614
:20342000002148460A46984743E14FEA0808C046002800F03E814168002900F03A81BBF834
:2034400004009BF801200B460221984731E1C04623F096FB002800F02C81606980B104687A
:2034600074B1DBF810000090BBF80A109BF80C209BF80D300BF10300A04701209DE1C046CD
:20348000BBF80A00012122F086F912E14FEA080800229BF801100992002940F0DE809BF8D5
:2034A00006104908C0F0D980114602A8082223F00BFFBBF804001DF043FC051C18D1A0693E
:2034C000002800F0A7800168002900F0A380C046C87A48B9002900F09D802078042109F0D3
:2034E000CBFB97E04FEA080809680029F0D191E0DBF81470002F00F08380099907F1110056
:2035000006220A9122F0E8FB002850D00A993846062222F0E1FB002844D197F810A00A9E50
:2035200011370AF0010AC046761C002FF6B23E7032D0DDF82880A14609F150094FEA08081F
:2035400048463946062222F05BF818B199F80600504525D0BAF1010F17D1787920F03F0004
:20356000402812D10620102104AA18FB00F02330C0B21FF0F1FE04A8102122F02AF93846A5
:2035800004A920F0B5FF01280AD008F1010809F10809B8F10A0FD3DB26B108E04FEA080832
:2035A000002EC1D101210A910998CBF814000A98012825D0DBF8140060B30746387C062233
:2035C00007F1110100F001008DF80E0002A81EF087F9687907F11106012805D105F10C0034
:2035E000A91D06221EF07CF9A81D314606221EF077F9387C40F0020068710BE04FEA080885
:203600006879A91D062200F001008DF80E0002A81EF066F99BF806109DF80F20C1F380009F
:2036200010438DF80F00080905D39DF80F0040F008008DF80F0002A8594604F0A9FC0990CF
:2036400030B9BBF8040013F037FD606930B930E0BBF8040019F020FA606950B3416841B38E
:20366000BBF804009BF801200B46012198476069099A4368BBF804000321984719E0C046BD
:20368000002300939BF803100BF104000DF1210201F001010DF034FE58B99DF8210006219D
:2036A0000BF10C0210FB01F025300421C0B21FF0BBFF012081E0C046BBF8040019F0ECF922
:2036C00016F07CF8002877D1607B012819D0A07B012811D0002641F643753446C2F20005A6
:2036E00015F8010F012803D120460CF01DFC2E70641C0A2CF4DB17E017F06AF90020A0737E
:2037000012E000254FEA080828460CF00DFC6D1CEDB20A2D01DA0028F6D0002104F1200078
:203720000A22617323F0D0FD50201FF025FA17F087F941E04FEA08089BF8010000283BD152
:203740009BF80300BBF80A209BF80C300BF1040100F0010009F0E0FB00202EE04FEA0808EA
:203760009BF8010040BB23F05BFD054623F05CFD044623F0BBFB8DF8200010212A4602201D
:203780001FF052FF0320102122461FF04DFF0420012108AA1FF048FF9DF82000012803D0B3
:2037A0009DF82000032807D101201FF055FC0246062001461FF038FF00200BB0BDE8F08FD6
:2037C0002DE9F843040014D1002021F0A5FC10E020461AF06FFD012808D063E08A0740F10B
:2037E000578101F0FD0101700020B07120461AF0ABFB04F16605687D002853D0697CDFF8EE
:20380000CC94022904F1EC0704F59E7804F5B07604F5C67035D0042947D005295DD0062905
:2038200000F08B800729D3D0092900F0EF800B2900F0C3800C2900F00B810D2900F0D38098
:203840000E2900F0ED800F2900F02B81102900F04581112900F05F81122900F0118114290D
:2038600000F08A81162900F05D81172900F07881FC2917D0FD2900F09881FE2900F0A481A0
:20388000A2E7297C012909D199F80300002813D01621204621F062FC012004E0204619F0D7
:2038A00061FC28740020BDE8F283297C012940F0A78199F80200002800F0EA800021A9715E
:2038C000FF22FC21204615F081FEA07904F1B80204F1B00110F048FA8BE7297C012910D1EE
:2038E00099F8020020B184F89410002038607860B87A01286AD1FF220621204615F066FE07
:2039000077E704F1E7063078012808D120461EF06FF90128C6D10020B8720120C1E7707826
:203920000028BFD004F1C70204F1A00104F1D7001CF0A8FE012030705BE7297C012940F0FC
:20394000668199F80200002840D0618CE18320461AF0FAFA0120287020461CF0A5FA012015
:20396000A871397A787C012900F010000FD148B1002088F80500D8F8001098F80600490818
:2039800014F0EAFEA079002115F066FD0FE048B1D8F80020DFF8380304F5A17352082146E1
:2039A00012F0FEFAA0790122002115F0A1F9002038723873F872B8721BE7287C012806D162
:2039C000F97A012904BFFF22FC2196D060E0204618F09AFA01289DD10020F87284F8940070
:2039E0000120287405E7297C012940F0148199F80200002809D0002184F8941001202870FC
:203A000020461CF051FA0120A87188E0297C012940F0058199F80200D0B3618CE183E5E690
:203A2000287C012840F0FF80387C022804F1FD0204D1A179002015F09BF9D7E6032840F078
:203A4000FB80A1791A2015F093F900203874CDE6287C012804F20D1140F0F9800B78012B4E
:203A600004F5897240F0F9804878012807D15388009300201388CA78A17915F02BFDB5E69B
:203A8000297C012940F0F88099F802000028F6D1298B481E288380B200287FF403AF2221A6
:203AA000F7E6287C012840F0EB8098F80910012902D130780F281BE098F80800012826D189
:203AC000002188F80810288D000900901A20AA8CEB8CA179520810F0B7FD87E6287C012896
:203AE00040F0D28098F80910012910D1307810281CBF002021F010FB002088F80900288D3B
:203B000000090090AA8CEB8CA1797078E2E7287F0028E2D1BCE7297C012940F0B98099F8A6
:203B20000300F5E7297C012940F0B680017B4A061DD4CA0709D501F0FE0101730023A17964
:203B40007078002210F04EFB50E68A0740F1A98001F0FD0101730023A17900221A20F1E71D
:203B6000297C012940F0AA80027B510690D5017B01F0BF01017339E6297C012940F0A08004
:203B800001788A067FF52AAE01F0DF010A0701700AD501F0F7010170F08B0090738BB28BFE
:203BA000318BA07910F07CFB1EE6A97EFF22204615F00CFD14E7FF22204615F007FDACE6DC
:203BC000002021F0A9FA6DE6A97E0C2918BF0E29F1D00F2902D01429EDD0F1E7FF22FC2179
:203BE000204615F0F3FCB8F812000090B8F81030B8F80E20B8F80C10A0790EF08DF951E6AB
:203C0000204613F05BF82874E88A28834AE620461AF0FAFDF7E720461DF0D2F8F3E720463D
:203C200017F04AFDEFE7204617F07CFD2874E88A28830120387435E6288B401E288380B2EB
:203C40000028F8D1A179222015F092F827E701208870204616F006FCD5E7288B401E28837B
:203C600080B20028E7D15088009022201388CA78A17915F02FFC12E720461BF019F9C2E73C
:203C8000204611F0B1FEBEE7204611F0FFFEBAE7204619F019F9B6E71621204611F0B9FAF5
:203CA000B1E7288B401E288380B20028C3D1A17900230022222010F095FAF0E61721ECE7B1
:203CC0001421204614F035FB9DE700BF74760020D9A401002DE9F84FDFF87444A178FF291D
:203CE00004BF002021F018FAA07822F099FD044604F1680504F5C9762968086804F190078D
:203D000008B100200EE0A97B002904BFA87E002809D13978002901BF30780028217F012970
:203D200001D1608CE0832189E08B4118491C6181204621F035FA01281EBFDFF81804017895
:203D4000012904D120890022401CE28360814FF6FF78A87E01280DD1AA8B6189208920F036
:203D60009FFB38B1218960894A1C93B298422CD0A88B20E0387801280DD17A88618920892D
:203D800020F08EFB38B1218960894A1C93B298421BD078880FE03078012816D17288618913
:203DA000208920F07DFB80B1218960894A1C93B298420AD0708892B2904206D04044608166
:203DC00080B223F0DBF94044E083307801280DD120897188401C80B2814207D172793271DB
:203DE000002030701346A17910F0FCF904F59A71087920B120890021401CE183608104F1E5
:203E00002E07A87E01283ED12289A88B521C92B2904238D1608104F18601204621F0A0FB35
:203E2000A88C6189608400202077E083E0894118A181A88B218923F0A1F98046B988288C3D
:203E40006A8C01FB0808E88C8A4204BF3989884202BFA98CFB88994207D000090090AB8CD6
:203E6000A1795208002010F0EFFBA87F3870688CB880A88CF880E88C3881204621F0F0FE8B
:203E80000220A87601E0B7F80480E28BDFF8C892501C00FB08F040F6C41808FB00F100913A
:203EA0002368D3F80CC06144DFF8B0C2D960DCF800E0AB499EF800A00B884FEA9A1ABAF1B0
:203EC000030F15D199F80FC05FEACC7E48BF00230ED45B1C1FFA83FCBCF1010F11BFB4F8A3
:203EE00012C004F59A7CBCF806C00CF2DC5C01E0B4F812C00CFB00FC4FF4C87EBCFBFEFC95
:203F00000CF1010CC4F814C00B80A06184F820204FF01C0BDFF84CA2A379DAF8000000F1B5
:203F200008021BFB03F3D1582268116100F10801A379D26860691BFB03F3121ACA50DAF809
:203F40000000A37900F108021BFB03F3D1582268916000F10C02A1791BFB01F10C30525C8F
:203F600002F0F00242F002024254DAF80000A279811C1BFB02F200208852307908B921F088
:203F8000CBF8DAF80000A27900F1100130791BFB02F240088854A079DAF800101BFB00F097
:203FA0000844002141743079042814D1A079DAF800101BFB00F001F11002337A125C1031C4
:203FC00042EA83020A54A179DAF800001BFB01F1084420214174DAF80000A27900F11201AB
:203FE0001BFB02F2002088525F49A0790A6802F114034FEA401C143253F80C00A379D4F866
:2040000014C05B0100EB4C00D050A87E02280CD10A68A57902F114036D0114325859A379D1
:204020003D785B0118FB0500D05099F80F00C2075BD5DAF80000A57900F108031BFB05F5A2
:2040400008305A59A3791BFB03F3A2F5A862C250DAF80000A57900F108031BFB05F55A59EB
:2040600023689A600098121A1A610868A57900F114036D0114305A59A3795B0102F5F662BA
:20408000C250307904280BD10868A57900F114036D0114305A59A3795B0102F56162C2501E
:2040A0000868A37900F114025B01D058C4F834012E4A0B68106BA679006803F11C05BB88B3
:2040C00043436427B3FBF7F3760108FB03F0A0F59660A851264B1878012821D10968A079A0
:2040E00001EB40110122CA7221E030790A68A57904280CBF4FF4AA504FF4E66002F1140323
:204100006D015A59101ABA8808FB02F2A2F516729042CDD30821204621F020F8012015E0BC
:20412000506A0968A279407801EB4211C872A179DAF800000F4A1BFB01FB216858444860E4
:204140000720107020461DF0B9F80020BDE8F28F38790020F97A002074760020047A002042
:20416000C27A0020E0790020DC790020CC8D0200F07A0020EA7A00202DE9F84F040004BF68
:20418000002020F0C9FF04F1500941F62300D9F8006030800020708022F04AFD00F57A6066
:2041A000B0608220307302207073B0682061207EB0730020F073D9F80400017D022904BF87
:2041C000002020F0A9FFD9F80400007D012802D10020002104E083280CBF06200220202195
:2041E0003074717404F1240BD9F80400DFF8BC834178480615D5D8F83C00416908689BF87D
:204200000510401C01EB4101405A7082607DC10604D5E07F40F04000E07702E040F040007E
:20422000607506F15805002028714FF01E0A9BF81A00800000F00400287104F13000B06640
:20424000607DC10646D506F130003062D9F8040041788A060BD5617D01F0FE01617540788C
:2042600010F0030F03D1E07F00F0FE00E077607D1EF069FC0246A275521C307CC0F38001B7
:20428000002392B200F003001CF0B8F9A0831E23A08BE27D00F5967100F59B7012FB01F21D
:2042A00090FBF3F30A320AFB13006283C0B208B1C0F11E008018A183608380B2B168A6309A
:2042C00001EB800131660220E871E07F40F00800E07713E000273762607D40F001006075DB
:2042E000D9F804104A78510744BF40F002006075607D1EF028FCA0753766EF71A07D217DD9
:2043000060F3050106F1880021750170617D4170032181709BF81A10890001F0040141F0AD
:20432000030181709BF81B20D20002F00802114381700021C170C6F89010BBF81C00C0F375
:204340000B00ABF81C00D9F80410CA7D40EA0230ABF81C000022617D01F0FE0120460EF0F8
:2043600013FC40F61200B0830020F083D8F83400018889007162D8F83400008800B10720D3
:2043800006F128073870607DC1064CBF002002207870E07D788041F62400388100207881F4
:2043A000618BB06800EB8100B0630021822038750220787594F8210000F03F00B875F97584
:2043C000D9F80400807D012818BF022803D100F07F00401E04E083280CBF0620022020215D
:2043E00079763876D8F83C00416908689BF80510401C01EB4101405A78830020F066D9F8EC
:204400000400417811F0030F24D01FF069FBF066D8F818000078C107D8F8181009784CBF63
:20442000102000208A07D8F8182012784CBF202100215307D8F818301B784CBF4022002208
:204440001B074CBF8023002308431043184340F00F00287600206876D9F80400807C00F0D4
:20446000030068769BF81A10890001F00401084368769BF81B10C90001F0080141F0100133
:20448000084368764A49087838B1697E41F040016976287E00F0FE002876E07F1EF053FBD2
:2044A00084F8200020460EF0D5FBE07FC1063BD5D9F8040094F820204178521C88074EBF92
:2044C000D21E9BF81F001218387EC0F380010023D2B200F003001CF091F8ABF80000BBF8A1
:2044E000000000F59671C1F11E0291FBFAF10AFB012A8BF804A0D9F804104A7891074CBFD6
:2045000000214FF49B710818ABF80000ABF80200BBF800109BF80420B06B5118A63100EB03
:2045200081007067022001E000207067E87604F13000C6F8800006F18400D9F804104A7846
:20454000510706D504F138010160687E40F0200006E018490A6851680160687E00F0DF00DB
:204560006876A17F94F8200060F30501A17740F60B00B8840020F884D8F8380001888900ED
:204580007165D8F83800008800B1072028700220687094F845006880D9F804004178880775
:2045A00044BF012068800020BDE8F28FCC8D020060790020387A00202DE9F04F42F6B82A14
:2045C00042F20479C2F2000AC2F20009DAF80000D9F82020056940F60171C0F20201ADF163
:2045E000140D09F11C0423460120A847029418B1DAF800008068804747F67370C0F2020053
:20460000047809F10206C04619F082FE039020B118F0A6FA4FF0FF300390D9F8080000B1F6
:2046200080474FF0000805E10098D9F80C1010F8062CA0F10C0B032A00F0FA809DF80520CE
:20464000002C00F0ED80D9F824004146401EC04610F8013F9A421BD0491C8C4240F2E0801D
:2046600010F8013F9A4213D0491C8C4240F2D88010F8013F9A420BD0491C8C4240F2D080C2
:2046800010F8013F9A4203D0491C8C42E0D8C7E0CDB2FF2D00F0C48032789BF804104046DB
:2046A000FF2A11D091420BD072780120FF2A0BD0914205D0DAF8000080688047FF2007E004
:2046C00040F08000C0B203E040F080023154D0B29BF80610012904D0022904D100998870E4
:2046E00001E000990870009F99F800E035F07F0362D1002F00F09E80DAF8001035F07F001B
:2047000001F1080101D008688047AC4248DD57F80C0C00283AD117F8020CFF2836D142F26A
:20472000D85007F8025CC2F2000000688047414647F80C1CD9F80420BC46CAB152F80C7CDF
:204740009FB14FEA0808C04657F80C3C3A4663B153F80C7C1A4647B157F80C3C3A4623B179
:2047600053F80C7C1A46002FEED142F80CCC01E0C9F804C042F2DC51C2F20001096888474A
:2047800028464FF4004108F077FA53E0381C51D010F8021CFF294DD10C3822F015F949E01D
:2047A000381C47D010F8021CFF2943D10C3822F00BF93FE04FEA0808A7F10C00BEF1FF0F09
:2047C00099F801B0049005D0D9F8240004EB0E0110F801B0DAF80000BBF1FF0F1CD085F095
:2047E0008005022D03DB80688047DAF800000499FF228A72D0F800C0715D3B4658464246EF
:20480000E047B8B1381C15D010F8021CFF2911D10C3822F0D9F80DE0806880470AE0C046EC
:20482000DAF800008068804704E04FEA0808C04601B18847DAF80000C3690DF105016A4691
:2048400001A8984700283FF4EFAE47F6A420C2F2000000684FEA08084FEA480B30F80B7043
:204860003FBB08F101085FFA88F844455BDD4FEA480B30F80B70E7B908F101085FFA88F8F8
:20488000444550DD4FEA480B30F80B708FB908F101085FFA88F8444545DD4FEA480B30F8B1
:2048A0000B7037B908F101085FFA88F84445D3DC39E0444537DD42F2D850C2F2000000684C
:2048C000804747F6A421C2F200010A6842F2DC57C2F20007002332F80B50396822F80B3028
:2048E000884747F6D460C0F2020050F8282089F80080294640469047FF21804642F2D85025
:20490000C2F20000006889F80010804747F6A421C2F200010A683BF80230396848EA0308B7
:204920002BF80280884719F0F3FC07460398B8422DD0002F04BF4CF28E27C2F6F507D9F8C2
:204940001800B84238BF071C42F2D850C2F20000006880478046DAF80000016AD9F81C00FC
:204960008847D9F82020DAF80000029B521CC9F82020C56840F60171C0F202013846A84782
:2049800042F2DC50C2F20000016840468847D9F80470DAF800C0D9F810000CF1140CDFB9D8
:2049A0000CB34FF00008C04647F6A420C2F20000006830F8187047B1DCF81010D9F8100051
:2049C0008847DAF800C00CF1140C08F101085FFA88F8A045E8DB06E0DCF810108847DAF85B
:2049E00000C00CF1140CDCF800104FF0FF3088470AE602220AF08EBF2DE9F04FADF13C0D22
:204A00000D90076840688A460E9022F0AFFD97F89810012904D122F0A5FD0020EAE1C046DB
:204A2000012487F8984022F09DFD002038639AF800003870DAF804007860DAF80C000AF1D2
:204A40001001F8600A6807F11000026089888180DAF81600C7F81600BAF81A007883DAF8A9
:204A60001C00F861DAF820003862DAF824007862DAF82800B862DAF82C00F862DAF83000F7
:204A80003863386B002101712046F86010203882788A41F26372104302407A824FF49070BF
:204AA000B8821520B875FC751E2038767C763020B876F976397E00252E4601F00300401E7C
:204AC00006D0401E08D10E1106E04FEA0808C046387E05EB2015EDB2B87D00F00304641E4D
:204AE00006D0641E08D106EB2016F6B204E0C046B87D05EB2015EDB2BC7E34F07F0402D020
:204B00004FF0030C01E04FF0020CF869BC7E0CFB00FC34F07F0405FB0CF501D0032000E0FF
:204B20000220FA69796A50434643A819B1FBF0F4062C08D3002005B1204606B10019F96A24
:204B4000B1EB001F08D222F011FD002487F8984022F008FD20464DE10E9880790EF060FE7F
:204B60000A200EF05DFE0D9809F086FB60B90E9880790EF0D1FA22F0F9FC002487F8984090
:204B800022F0F0FC204635E1002D51D047F660080021C2F20008404622F0E0FC47F64809C9
:204BA000C2F2000947F2DC600021C2F20000C0F80080484622F0D2FC4FF0000847F2D86090
:204BC000002CC2F20000C0F8009037D046F6505BC2F2000B4FEA0808386AD7F8289005FB8E
:204BE000080109EB0819A8EB0400B0F1FF3FC9F80C100DD047F2D860C2F20000006849464B
:204C000022F0A8FC012089F808000AE04FEA080842F2F460C2F20000C0F80090062089F8D6
:204C200008004BF8289008F101084445D4D805E047F2DC610020C2F200010860002E5FD045
:204C400047F66C080021C2F20008404622F086FC47F65409C2F2000947F2E4600021C2F203
:204C60000000C0F80080484622F078FC47F2E060C2F20000C0F800900DB1A34601E04FF0AC
:204C8000000B002C4FF0000840D04FEA0808C046D7F82890386A05FB0BF108EB0B0206FB11
:204CA000081109EB02194018A8EB0401B1F1FF3FC9F80C000CD047F2E060C2F200000068BE
:204CC000494622F047FC012089F8080009E0C04642F20070C2F20000C0F80090062089F810
:204CE00008000BEB080046F6505108F10108C2F20001444541F82090CAD807E04FEA0808D6
:204D000047F2E4610020C2F20001086001A800213022082322F01AFC0D9806900E98002464
:204D2000417900940991017946F2B17201ABC0F2000207F1340022F005FC01A824220823FD
:204D4000214622F0FBFB0120014601AA8DF81C1007F16C00214622F0EDFB3878A0B901A8A9
:204D600021462422082322F0E9FB214607F1500001AA8DF81C1022F0DDFB0D9847F2F11190
:204D8000C0F20201B96035E048F2F441C0F20201087840092AD348F2F040C0F202000278AE
:204DA000520907D248F2F842C0F202021268128852091BD30978090918D30078000907D260
:204DC00048F2F840C0F202000068008800090DD3DAF8080050B948F22E50C0F202000088FD
:204DE00006A140F2B312234622F0A0FBDAF808100D98B9600FB0BDE8F08FC0462E2E2F499A
:204E000032532F4932534343323658582E6300C02DE9F84F0E46700688B029D5DFF8342396
:204E2000107800210DF050F9040021D0CA4908688047054622F0EAF8012804D021F000FFF8
:204E40006168884203D140F201401BF099FF00202072201D12F09EFDC0490A682846904789
:204E6000204621F08BFBFF224321204618F006FCF0070BD521F0E4FE28B100218160B8489B
:204E8000006800B1804786F0010060E1B00710D50020069000210490002302900090059198
:204EA0000393019101223C2002F08CF886F002004DE170074FF01E08AA4F40F1A7800020E2
:204EC00007908346A848007800210DF0FDF8A74904468878FF2804BF002020F01DF9A07A73
:204EE00021F09EFC0546606D807A95F82E91022818BF032805F5947A07D138680D3021F0AF
:204F00005FFA10B9386800F1070B5146484621F056FBA0B3606D807C3B68002818BF01285E
:204F200004D1194650461BF0ABFF04E052464946184614F099FFFF2843D018FB00F8386808
:204F4000404406225146C01D1CF0CAFC386810F80810404400F1010AC01D079041F002096F
:204F6000606DC17A01F0010185F82E110622606D00F10C0105F594701CF0B2FC21E0514637
:204F8000484621F011FBE0B138685246494614F06BFFFF2815D018FB00F8386840440D3028
:204FA00021F00EFA58B9386840440D3021F008FA002801BF38684044407F012801D149F054
:204FC000020905F12C004B46017806914189090905916A8C079904920122C088029140081F
:204FE0000390CDF804B0CDF800A00020A97901F0E9FFD5F89C015E498842A8790CBF00213D
:20500000012113F001F886F00400A0E0300610D50020069000210490002302900090059117
:205020000393019101223B2001F0CCFF86F080008DE0F00445D54F4804683868C11D0D30DF
:205040001AF066FA2CE0207A012828D1616D4878410724D504F13E000178022918BF032975
:205060001DD14178386804F1380214F0FDFEFF2815D018FB00F5386828440D3021F0A0F9B4
:2050800068B938682844C11D0D301AF041FA38682844C11D062204F138001CF021FC24688F
:2050A000002CD0D134484268344800784FF480510BF016FC10B18E2014F090F986F48050A2
:2050C00045E0B00505D521F0ABFE2D4901200860FEE7710504D522F00FF986F4806036E0A5
:2050E000700405D5812014F079F986F480402EE0B0042BD5234C206810B1002020F00CF863
:205100004FF0FF30206000201F4C15F071F9216851F8202F684690471C48016B426B0091F3
:205120000192C06A24681A491A4A02910392ADF810006B462568184A18491948A8471949CF
:20514000086006F09FF986F4005000E0002009B0BDE8F08FFE7A0020D8250020DC250020DC
:20516000F0790020347A0020FF7A002038790020F1DE0100207A002060790020EC7A002065
:205180007C052043007A0020F879002074240020116C0200216C0200747200200C290020DF
:2051A00058680020FC7900202DE9F041ADF1100D11F03AFF0CF08CFC22F09AF842F2313081
:2051C000C2F20000007847F68C11C2F20001087022F08AF80DF0A4FD1EF0F2FC47F690158C
:2051E000C2F20005284621F015FE0026012432202E702946688004202C7112F0B1FD42F22D
:20520000E02742F23A38C2F20007C2F2000843F25931812238602346C0F202011020CDF85D
:20522000008015F071FEC0B260B1102043F2296188F8000081222346C0F20201CDF8008082
:2052400015F062FE3868002800F0528142F60061C0F2932121F0BDFF38684DF6B141224655
:20526000C0F2000119F01CFC386819F0ADFF2946062012F075FD42F2E827C2F20007386066
:20528000002800F031814AF2FF51C0F20E0121F0A0FF386846F209612246C0F2020119F0DF
:2052A000FFFB0220294612F05BFD42F2E425C2F200052860002800F013814BF67F3121F0DD
:2052C00088FF286846F651412246C0F2020119F0E7FB42F24835C2F20005286820F04CFB90
:2052E00048F2183042F2A051C0F20200C2F200012860FFF781FB002800F0EE800F20314678
:205300001CF0E2FB3246A7201E21134622F00AF947F69821C2F200010028086000F0D88035
:205320001BF05CF817F028F847F2BC25C2F20005284620F031FFAE752C7044F291706E758D
:20534000C0F20200E8606C7046F69150C0F2020028612E752946EE754FF46120A861304663
:205360001CF054F947F6AC2CC2F2000CCCF8000030B94FEA0808C046FEE74FEA0808C046CF
:2053800041F2E820C5F2000090E80C004FF6FF71C0F2FF014FF0FF301940104047F6781351
:2053A00002AAC2F2000382E8030030464FEA08080DEB00010A7A411C1A54C8B20628F7DB9C
:2053C00042F23431C2F20001DCF800000A6846F69841C2F2000121F0B8FE1AF0F5F930463A
:2053E000014611F005F847F26011C2F200010028086069D042F6EC05C2F2000528461BF0E5
:20540000DFFD47F2F86010222946C2F2000021F09FFC354647F2082047F2012100960A2225
:205420003346C2F20000C0F20201019518F0ECFE47F26811C2F200010A223346086047F255
:20544000E11147F2C0100095C0F20201C2F20000019518F0D9FE47F26C1244F2DD71C2F2EF
:205460000002C0F2020110602246102015F04CFD44F6030110203246C0F2020115F044FD3E
:2054800044F6290110203246C0F2020115F03CFD44F64F0110202246C0F2020115F034FD00
:2054A00042F26D7110200522C0F2020115F02CFD42F2AF1110202246C0F2020115F024FD39
:2054C0001AE04FEA0808C046FEE74FEA0808C046FEE74FEA0808C046FEE74FEA0808C046E7
:2054E000FEE74FEA0808C046FEE74FEA0808C046FEE74FEA0808C04604B0BDE8F08170478F
:2055000070B51446A0F580630A460146132BADF1100D104604D9183B42D09A1E28D017E0C5
:20552000DFE813F08601160076016A015E01520146013A0116001A010E010201E600CE00F7
:20554000160016009E007A0072004E004FEA0808092901DA022803D0022576E14FEA08082D
:205560002288084611461DF0B3F8C5B26DE1C046002840F0598114F021F948B141F6327136
:2055800001200025C2F2000108705EE14FEA080815F01EFA044650201DF0EEFAE5B254E178
:2055A000012840F04181002C00F03E81207841F633710025C2F20001087046E14FEA0808C0
:2055C000602811D184B141F6247621466022C2F2000606F1A0001CF083F900250120F072F1
:2055E00033E14FEA0808C046012840F01D81002C00F01A81207841F62F710025C2F2000151
:20560000087022E14FEA0808012840F00D81207821F024F9002518E1012840F00581207884
:20562000032880F20181002800F0FE8041F62471C2F2000188722078022809D110204872B4
:20564000012021F071FC0025FFE04FEA0808C046002021F069FC0025F7E04FEA0808C04677
:20566000072840F0E180611C01A806221BF050F800250095217801A803AA2B460BF040FE76
:20568000002818BF342540F0E08014F097F858B19DF80C0041F644720121C2F200021154BB
:2056A000D3E04FEA0808C0469DF80C000AF03CFC044650201DF060FA15F0C2F9E5B2C4E0F9
:2056C000012840F0B18041F62472C2F200022178107B00250028117340F0B78020780128A0
:2056E00040F0B38015F0ACF9AFE04FEA0808C04641F62471C2F200018A7A012840F09480CD
:20570000022A04D02078062801DD112806DB022A40F08A802078102840F086804872002580
:2057200093E04FEA0808C04601287DD120780A287ADA41F62B710025C2F20001087084E089
:20574000012871D1207802286ED241F62A710025C2F20001087078E0002865D114F02EF8D8
:2057600038B141F6317101200025C2F2000108706BE000244FEA080820460AF0D5FB641C8C
:20578000E4B205460A2C01DA002DF5D050201DF0F3F915F055F958E0012845D1207841F623
:2057A0002C710025C2F2000108704EE04FEA0808012839D12078022836D241F62971002590
:2057C000C2F20001087040E010282DD141F6647021461022C2F200001CF082F8002534E02F
:2057E000012821D1207802281ED241F628710025C2F20001087028E0012815D120780528DE
:2058000012DA41F627710025C2F2000108701CE0012809D12078022806D241F626710025EF
:20582000C2F20001087010E018250EE04FEA0808012809D12078032806DA41F6257100253F
:20584000C2F20001087000E01825284604B070BDC8480278112A00D070472DE9F84FC64BF5
:20586000187800210CF030FC04000AD100201FF053FC00201FF050FCBDE8F24FFF2016F06C
:2058800095B804F14C0999F8000008B90121E172401C89F80000C2B2E17DD9F804608A42FA
:2058A00020D2B07B401CB073D9F808104A7A520802F0010282F001021018B073A18BB0684C
:2058C00000EB8100B060607DC1060AD5628B99F80010A08B00FB1121B068A63100EB810088
:2058E000306644E104F1280706F1900806F173054FF0000A4FD1A17F6975E07FA875D9F817
:2059000008205278930710D5E27FD30604D5C91E697500F0EF00A875C6F874A085F800A053
:205920000022A97D01F0FE011CE1900608D4F88B00B1F87E2876F88B00B1386AC8F80000E2
:20594000D9F808004178C8070DD5F88B00281CBF386A002807D0C8F80000B97EF88B8142A0
:2059600038BF08462876E07FC1060BD5B06B397800EB8100B063A18CA63100EB81007067AC
:20598000022002E0C6F874A0002028700022E17F01F0FC01E6E0D9F808205278D30717D5BA
:2059A000A87D697D00F0F700891E01F03F0182075CBF891D40F00200420644BF491E00F0FF
:2059C000BF00A8756975C8F800A085F818A0CEE0401AC0B20090900740F1808000980128E5
:2059E00006F1400B44D1B06BA18C00EB8100B063A07F00F03F00A0776875801EE17FA9752B
:205A0000687501F0F701A975D9F8082053785A0704D5801F687501F0FD01A9750023697D12
:205A2000FA7E9BF8000001F03F018A18521CC0F3800192B200F003001AF0E0FD00F59B70C8
:205A4000A0841E21A08C90FBF1F18AB2A97D01F0FE0120460DF098F885F800A0F88B00B1B4
:205A6000F87E2876F88B00B1386AC8F800007EE00228B06BA18C00EB8100B06326D1E07FD7
:205A8000C10706D5687D811F6975A87D00F0FE00A8750023697DFA7E9BF8000001F03F018B
:205AA0008A18521CC0F3800192B200F003001AF0A5FD00F59B70A0840022A97D01F0FE0163
:205AC00020460DF061F8787FABF81A007A7F0098521C101AC0B2012814DD0BE0B06BA18C6E
:205AE00000EB8100B0637A7F0098E17F101ACA06C0B207D5A28CB16BA63201EB8201716785
:205B00000221297098B3D8F8003097F81BC0E27FA17F6344C8F8003052084FEA4208D9F84E
:205B200008205278530748BF28F00208920748BF28F00808012807D1387F2876C6F874A000
:205B400028F0100885F800A001F0C00640461CF0FAFF00F03F003043687585F81680002202
:205B600008F0FC012046BDE8F84F0DF00DB8BDE8F18F00BFEA7A0020FE7A00200C20704739
:205B80002DE9F84F41F6247AC2F2000A9AF80000894648F20001CFF6FF7111EA090F3FD121
:205BA000DAF818005FEAD9011AD25FEA191038BF0020C0F074819AF81000012807D147F6DE
:205BC000D520C2F20000007808B910F099F989F008091FFA89F0BDE8F88F4FEA0808C046BA
:205BE000A8B104689CB1C046E07A68B97CB10120E072A17A6268208906F03AFC606830B10F
:205C000020F0E2FE03E0C0462468002CECD189F004091FFA89F0BDE8F88F4FEA0808C046A3
:205C200003F0EAFA071C00F036813878B03823D0401E15D01F3840F02B813846FDF718FB3D
:205C4000002840F0258142F25550C2F200000078FF2800F02081394606F066FF1BE1C046AD
:205C60003879002840F014817888F9883A8917F03BF80DE14FEA0808B84698F80400DAF86D
:205C80001860401E00F09480083825D0743840F0F980B8F80220301C4FF0040117D0C04651
:205CA00003899A4212D0006888B103899A420DD0006860B103899A4208D0006838B103891E
:205CC0009A4203D000680028EAD100E0C17AB8F802000DF0E9FAD5E098F801001A2800F0A5
:205CE000CD80B8F802000421CEB14FEA0808C0463289904212D036688EB1328990420DD0FC
:205D0000366866B13289904208D036683EB13289904203D03668002EEAD100E0F17A891E03
:205D200026D0491E40F0AE80B8F80810044601290ED1B8F80A1003290AD1D8F80C108A78CE
:205D400004210EF0ADFF0246DAF8140030B999E0DAF81400002800F09580182240680028C7
:205D600000F0908003460421204698478AE0C046B8F808108346012201290BD1B8F80A107C
:205D8000032907D1D8F80C108E781EB910210EF087FF0246DAF81400002873D04068002818
:205DA00070D0064605215846B0476BE04FEA080898F80800B8F802B008F1080408285DD1AB
:205DC000301C4FF0040116D00289934512D0006888B1028993450DD0006860B1028993454B
:205DE00008D0006838B10289934503D000680028EAD100E0C17A0846801E15D0401E3DD1A1
:205E00006088042100220EF04BFF0246DAF81400002833D04168002930D060880B46042182
:205E200098472BE04FEA08086088102100220EF037FF054658461AF083FFA8B147F6D521BF
:205E4000C2F20001097861B94379801D0122014603F00103184620F07DF8DAF8140030B986
:205E60000CE001208AF81000DAF8140030B1416821B160880B462A4605219847B8F80200E1
:205E800011F01AF998F8041008F1080020F05DFD38461FF0C5FB89F400491FFA89F0BDE895
:205EA000F88F70472DE9F84306460D46707801071DD4D6F80310BA4821F07F412039814203
:205EC0003FBFD6F8061021F07F412039814228BF112033D2B01DF11C88425FD3B07A0028AE
:205EE00018BF012803D0022818BF032856D1B07C002818BF012803D0022818BF03284DD10B
:205F0000307D012818BF022803D0832818BF032844D1707A10F0070070723FD03078012169
:205F20000CF0D2F804000AD100201AF045FB044621F060F8844214BF07200D202DE104F1AF
:205F40005402002016606072207A012808BF0C20F4D00021E17500200121737A01FA00F771
:205F60003B4208D0E37D5B1CE375DBB2012B04BF00F125032376401C0328EEDB7078C10670
:205F800018D5317D012909D1102810D012280CD0132804D0152804D01D2804D09FE000205C
:205FA00006E0042004E0012002E0022000E00320A0735EE0FF20A073307D02281EBF7178AB
:205FC00001F003000328E9D00B07E7D408B18806E4D4480707D516F10C00DFD0F07A00289E
:205FE00018BF01287BD100206075E077707810F0030F27D1207D00F03F0020757078810647
:2060000005D45168002904BF9068002801D018216175707881060DD4307D832818BF032858
:2060200004D1182060750120E07703E0607D40F0010060757078410717D5E07F40F0020093
:20604000E07712E0217DC0074CBF0120022001F03F0141EA80111820607521750920E07734
:206060007078410744BF0B21E177207D00F0C000A07796F913007F2806BF4A48007815F0E8
:20608000AFFA04F12907387045B14749C86B42693978106801EB4101405C2870B07ADFF89A
:2060A0000C81DFF80C91434D002818BF012809D17875B07AC10758BFC8460622414604F1A5
:2060C000300032E028680D3020F07AF9B8B1B07AC10754BF4946414620F066FA08B9122047
:2060E0005BE0B07AC10754BF49464146062204F130001BF0F5FBB07A00F0010007E0286870
:20610000C11D062204F130001BF0EAFB032078752968B07A00F001000870B07AC1072868AE
:2061200058BFC84606224146401C1BF0D9FB707841072FD5B07A022818BF032821D1F17A69
:20614000286806F10C0201F0010113F08DFE8046B8F1FF0F15D01E2010FB08F8286840446A
:206160000D3020F02DF960B928684044C11D0D3019F0CEF90120B875062228684044C11D2C
:2061800004E0F07AB875062206F10C0104F138001BF0A6FB012060720020BDE8F28300BF93
:2061A000E0FFFF00E97A0020CC8D02002879002030790020347A00202DE9F84FB94E0F4612
:2061C0000546F80B80F03381AA49B44CDFF8BC8208788B46B90F80F0D680B90880F0CA80EB
:2061E000DFF894A2DFF89492F90A80F09B80B90B80F08980790B53D2380C42D23809C0F0D8
:2062000032811DF065FB002836D04D465446032128682170783006F07DFE0EF0E7FC0220A2
:2062200000211EF087FC02201CF068F911200CF073FF9348007818B9286840300CF0C6F99F
:206240009048007810B90E200CF066FF607B20B10020607305201CF051F9404600228A4BFF
:20626000B0F91C102270B0F91E006360814214BF0220072014F00EF827F0080717F0BCF863
:20628000F1E040461030016839B1C86840880028FBD0C86840880128F7D027F40047EDE70B
:2062A00028B104201CF02AF900208BF800001CF073F940B1A8696FF4807100224FF000736D
:2062C00006462846B0477248724900220AF006FB504602212268704C01702668106B80473B
:2062E0004D466F492B680A689A4214BF0122002226B1801B01EB8201000B8860002027F44B
:2063000080572060BAE732684AB1906838B11069B2F934109268202314460022A04727F4EC
:206320000057A0E008F086FB834640460668DEB10569CDB94069B8B94D46504604215A4AC1
:206340002B68017042601BB103F1780006F0E2FD20683169006B296080474F490860534812
:206360004FF400610FF036FC584621F0FBF827F4806778E008F046FA40460830006808B92D
:2063800027F002076FE04A4A116841F08001116028B104201CF0B2F800208BF8000008F010
:2063A00049FB8146606D0068014604208847D8B1287CC8B13F480668B6B12068006B8047A7
:2063C000801BE968E860E868000BE860E868884203D240184008E860E86840F6C4118142F1
:2063E0002CBFB0F5967FE960484621F0BBF81CF0D3F888B1A8696FF4807100224FF0007314
:2064000004462846A04740460068002808BF47F0020701D016F0F0FF686900214FF08063E6
:2064200004460A462846A04727F000571BE008F001FB36689EB1B16A890810D2B56AB16A5B
:20644000A943B16221F08EF8B06850B14DB13069B6F93410B46800232A46A04701E021F07B
:2064600081F827F480471FB1104839460FF0B2FBBDE8F88FF9750020E8760020E8750020B9
:20648000F8750020A683020029FE0000E072002080730020C1140100F07500208C010010A0
:2064A000B8700020F8720020F5F400001C700020CC210840EC7500202DE9F847A84CA94D80
:2064C000DFF8A482A94FAA4985B02278002A4FF4A05600F0FA80072A14D0092A18BF0A2AE5
:2064E00000F0F6800B2A18BF0C2A00F013810D2A00F0D180112A5AD19E4A107800210BF006
:20650000E3FD002877D0C5F80080426D5378016D994CDFF86882DB065DD50B4641F2044E78
:20652000B3F802C0F4451FBFB3F81A90F145B3F832A0F24506D041F20A4EF4451CBFF145ED
:20654000F24502D1A7F800E04DE04FF0000E40F601044FF4806A4FF0180C0CFB0EFC03F168
:20656000020939F80C90A7F8009019F47F4FF2D0B9F1020F40F2EF80B9EB0A0918D0B9EBD8
:206580000A0412D04FF4406AB4EB0A0401D0A41E012C40F2C980241FFBD040F2FA37E41BC6
:2065A000E8D0641E00F0D180E11E00F0C48086E0B3F800C0A44540F0B7800EF1010EBEF14F
:2065C000020FC8DD4FE0981C20F80C6010E00168002008710CE0488E388041F20441401A60
:2065E00001D0801F01D12C603DE041F206403880C5F8008037E062488078FF2865D0C5F870
:206600000080604A12681C2111FB00F1931C5B5A3B8013F47F4FF4D04FF400641B1B5A4865
:2066200012D00A3B012B14D940F6F6341B1B032B84BF5B1F012B0ED940F2FF341B1B0AD011
:206640005B1E012B05D908E0921C41F20143535201E0921C5652286005E000201EF05CFDDA
:20666000852015F0A3F949480078012106F004FB2BE0092A53D146490A68508900284ED032
:206680004449087817F084F8002100201EF028FF0020207019E048883880022805D9801B20
:2066A00003D040F20442801A39D1887B801CC2B2B52AA8BF662088730020488005E0002024
:2066C0001EF02AFD842015F071F906B0BDE8F0874888388010F47F4FFAD0B0F5A05FC8D040
:2066E00041F6040290421AD12B4A92E8680002A82A4A80E868002A4D2A482E680068002351
:20670000CDE9002356F85C7F274B02AAB84727490880DAE74888388010F47F4FFAD000205D
:206720001EF0FAFC8520CEE7807B012818BF042800D03E805CE7807B01287FF444AF9A1CC3
:2067400041F2024122F80C1052E75078C2064CBF886CC86E3BE700201EF0DEFC8320B2E729
:20676000EA7A0020F07900205BD90100C07A0020F0730020FE7A0020AD240000757D00009F
:2067800038790020E07900209D6A0000EC7A00201C7A0020E97A0020C08E02000200008017
:2067A000F8790020FC79002021D20100B07A00202DE9F84F064641F27400C4F20200D6F89F
:2067C00000B07568D0F8008050F8041C08EA0108C0F808805FEA98107ED342F2D861C2F2DE
:2067E00000010868401C0228086000D100BF0868B0F5967F00D100BF42F2EC6742F2F469D8
:20680000C2F20007C2F200093968D9F80000884209D047F2DC60C2F20000006820F07EFECE
:2068200038680221017242F2F064C2F20004206800213860216008B900BF02E038680421F9
:206840000172DBF830000079072841D0DBF830000079082840D047F2D867C2F2000738687A
:2068600020F058FEC0B9386820F050FE014640F2F41203202160C1F2000208721068036806
:20688000CA68286801219847DBF830000521017114E04FEA0808C046DBF8301006200871A5
:2068A000D9F8001040F2F4122160C1F20002087210680368CA68286801219847DBF808206E
:2068C000DBF830103046904706E04FEA0808C046DBF83000082101715FEA5810C0F0B080F4
:2068E00042F2DC61C2F200010868401C0228086000D100BF0868B0F5967F00D100BF42F296
:20690000F86942F20070C2F20009C2F20000D9F80010006888420AD047F2E460C2F20000E3
