:20000000F8300120D9E10100A1C10310A1C10310A1C10310A1C10310A1C10310A1C103101E
:1C002000A1C10310A1C10310A1C10310A1C10310A1C10310A1C1031079C10310B9
:04003C00252627004E
:2000400038B53C4C207840B940F244720FF62C11394816F0F7FA0120207000213748017036
:20006000012237490A700223364A5370032353720524042393760925334BDC7106249C7286
:200080000724947708249474304C25720A25CD710B251D730C2525700D241C700E245C7035
:2000A0000F230B71102111702949C0F8621031BD2DE9F0412749284A3F2000F057FCD1F8C2
:2000C00018E0D1F81C80136054609560D6601761C2F814C0C2F818E000F042FCEDD108685D
:2000E0004B688C68CD680E694F698969106053609460D560166157619161BDE8F0812DE96A
:20010000F0410FF25C01154A402000F02FFCD1F818E0D1F81C80136054609560D660176186
:20012000C2F814C0C2F818E000F01AFCEDD1BDE8F0810000E67B0020244000212604002154
:20014000DA0300219003002101040021B4030021AD450021048D02000080002100C00021C7
:200160005B61F835F97546A257A3401F0713F134304000400140034007400F404F40CF4040
:20018000CF41CF43CF47CF4FCF3FCF2FCF1FCF0F304000400140034007400F404F40CF40C9
:2001A000CF7FCF6FCF5FCF4FCF3FCF2FCF1FCF0F50C00091007070C0009100708231210079
:2001C000319110B10070018101B100A18231329110B101911110418141223B40F106007066
:2001E00050C05091007070C05091007082312100819160B10070251050C00091F4C380C0E9
:200200002014036F31104104A082F0225840512622C082312100319110B163393110410414
:2002200082C082312100319110B163393110A2C082312100319110B15010153105145592E9
:2002400000702B64B2C2311031066131C1022E6412C13110213971065131E1022E64007080
:200260002864B18281318139E2C02E642B6411C122C12E6470C48B6811C1C2C02E64A46434
:20028000B76400704064B1828131813982C14664436411C1A2C0466470C49D6831C362C1CE
:2002A0004664A464B764007050B054B0007140804022B1440022A44060B08180111EA44447
:2002C000007054A064B0F0800022A44000704012B09032B0A382533953397164F0C2BF6861
:2002E0008080F1C1100451C1101CCB402B6421C2C2C02E64CF60436441C462C146649080B1
:200300005039D34400CED3688012B09032B000702B6401C2C2C02E64A08080314039DF6819
:2003200001C1C2C02E6401C122C12E64A3827164C012B09032B00070436401C462C1466419
:20034000A08080314039F36801C362C1466401C1A2C04664A3827164C012B09032B000703B
:200360002B6472C281C02E6422C111C12E6402C011C12E6462C031C32E6462C311C12E6449
:2003800002C311C12E64A38253397164E2C333641122164142C281C82E6452C211C12E6491
:2003A00072C2E1CE2E6402C281C82E6402C201C82E6470C12A6900702B6442C201C82E64E8
:2003C00052C211C02E6472C2E1C02E6402C001C12E6462C001C32E6422C101C12E6462C355
:2003E00001C12E6402C301C12E64A382716400708180111E564150B054B0007140804022C8
:20040000574154A064B0F18001224B45007000224B4160B04861067305720B720E7250B054
:200420000071818060B050A09280D0EE41935293FA6741227F458080F1C11004301601111B
:200440000114016CA061A061A061A061A061A061A361A761AD61B161A061D362D662F0C0CA
:2004600002043231412A1214321601112114016CBF61A161BF61A561AF61A961A061A06122
:20048000F462B361F462A561B561A961A061A061C561A161C561A561AF61A961A061A06104
:2004A000B861D665B8618064B86180644865D864B86192644865EC64B8610065B8610065FD
:2004C000D6652C65B861FE66B8610065FE66B161B0B0BB61B1B00673057230B05F611078EA
:2004E00051C43278537824C5CA61207851C442785378C4C4A491609271928292939215C06C
:200500004592F0C3B092F0C0A090B861E3B0CF6654A0F0805022E04540800022C346D8612F
:20052000E3A000C8B091A98150B0918041229E466282F11212042F101F312F146682D622FE
:20054000F34580C0F46180C120140D6F6D39DE10F4C34E0482C082312E006D39A2C0823162
:200560002D006A828A39FA067082803180390BC00B18BC10AC18538239149B146082F0061C
:20058000011010311014A18110140C1480824039F006021011C0013010C001180218823144
:2005A0002100C126E191C0CEFA67C6225A4603B013B063B053B041800122C34604821492A5
:2005C0002582B51C394E9518B591F08010222B429C623D9110B13E9110B1E08000224346F2
:2005E000E6224342E0B09518B5915F92A981F914F0805022D64110229C46D962CF66A9811C
:2006000055825914F0C0007163B0536AC6222B42E0A0726280828039F006021011C0013037
:2006200010C00118021882312100C126D19187824739873903B013B063B053B0007163B041
:2006400002B012B041800122C346F48114922582B51C804E9518B591F080102272429C6291
:200660000482149224824518751C8A4EF080102272429C623D9110B1E08000229246E6229D
:200680009242E0B0B5915F92A981F914F0805022D64110229C46D962B0CEFA6763B080824C
:2006A000F006021011C0013010C00118021882312100C126E19113B003B063B053B064B060
:2006C00054B0007141800122C34663B064B0F0805022D6414022B1460182119221829118CD
:2006E000B19131B0B162E3A0E0A05182B2818231823DA0EE41935293FA6703A000706282AA
:200700004239F2064B60A2804B64B86150B00071B861908241800122C34604821492258275
:200720009518B591F18011229C46DA6A41800122C346048214922582C51C4E4A9518B591D0
:20074000F0801022E6429C626078E091D0C25092C4C47078E1C232C103CBCA61E2A0E3B000
:2007600054A0F0805022084740800022EF470063E3A040A07D826082F1C0100409106A82CB
:200780004A391A046082803910040E10AB10BC10C2104B6490CEFA6713B003B0A16753B0A3
:2007A00050B054B064B013B081678A67007141800122EF47F08010223647F022DC4764B092
:2007C0003122264363B0A7675A67266364B0BF818F318F3D80DE4F93FA670071418001221C
:2007E000EF4764B0F08050224F4363B06182C1224A47A7676182D1223D475A673D63B181D6
:20080000C2818131813D8231823D70EE41935293FA67FE62008210922382D318674FF30B73
:200820001316E31C804B139233823B146C63E31C804B139233823B18AB1C7C4F9B1C7E4BC4
:20084000BC1C8043B2106082D0227943F080102280474B6481678063AB1070639B107063BC
:2008600000708082F1C0100463B00071846BBC10E0B0007002821292228251821218A18117
:20088000121891828131813D121C984BE2B032B0F1C721149C4F12C8B291C29131B0E1B06C
:2008A0000070081206C000C8B091C091007051820082109220821018A18110180614E18098
:2008C00092828231823D201CBB4BE2B02122BF4732B060CEFA672122BF43E2A032B0818258
:2008E0004139F0C00104011ECD43181610C01030081CDB476010103C0610F1C76114D14FF7
:2009000016C8B691C1818131813D161CD84BC69131B006C00812007003A063B064B0EFB0BA
:200920002C65007140800022EF4764B00065EFA0007140800022EF4764B003B02663E3A039
:200940005182B2818231823D50EE41935293FA6703A00070309320830022FB4710B30070B7
:20096000C2F81C8020312032401E70470B684C688D68CE680F69D1F814C070476141002188
:20098000D9410021554200210B4400215B440021914000219D400021B5400021DF440021EA
:2009A000D94000210B410021F940002151460021654600217F4600214541002101470021BC
:2009C000FFB581B003480A9D0047F8B58446024813460047437F00004551000070B51D46B8
:2009E000004C2047812202007046800A054A8D2804D01047034AE4320120049002490020AD
:200A000008701047696F0000F801002103490888034A7146904200D0891C0847A6010021D7
:200A200004140000F3B583B000480047170B020005480268520803D3044BDA60002202601C
:200A40007046001D0047000064470021400300210B487022016891434022114301600948C2
:200A60000047094801780C4608229143017000F003F80548047010BD10B5044800470000D3
:200A8000183004400F710000B30000210356000010B5014800470000DF0900000348044948
:200AA000C068C005C00F88470249084740030021D1870000CD530000F8B514461A46069B2D
:200AC000009313462246FFF77BFF009000282DD12E494868002829D009884900091B4143D2
:200AE0002B48C0684408640022791820801AC6B2012080040818C70C65793146254800F07C
:200B0000D3FA244801228319691E8A40002018218E1B07E041000919C98879438918E94069
:200B20001954401C8642F5DC1B4880470098F8BD10B5FFF74AFF044614490020174A486008
:200B400010680088000B03281DD060071BD41068C07B002801D0022815D11320C0010C4A16
:200B60000880D068C02804D0D82804D0FF38393809D10B4800E00B4848600B48D0601821B9
:200B8000044800F091FA204610BD00005C47002128000021000000214D7600000801002140
:200BA000913B060029FD0300FD9000000188BB4A8918032906D8BA487C210185B9494162AA
:200BC00001207047B8490847B84830B4014640310A7C022A16D10268D2794A7502689368DF
:200BE000024680329360487D02280BD0002809D0C41E062C09D8AA49800040184038806B1A
:200C000018189060AA4830BC00470320C002C8800220087230BC0320704770B5A3480446A6
:200C20004034A57D012D12D0017D4906CA0F80210A54217C00290AD1603040788008C00731
:200C400002D0E07C000702D50120A07500E00020A07398488047A57570BD70B5934C96486F
:200C6000254650358047022809D14034E188934A914204D1E97C890601D4911DE18070BD52
:200C800070B58A490A8908465030D2B2282A07D10A68D2684261937AD27A12029A1802835A
:200CA0000378874A002B10D08379012B0DD1037C5B09DB0709D0097D824DC1746C7F202084
:200CC0002043687790476C7770BDFF21C174904770BD10B57C48754C804702280ED1214611
:200CE0004031CA88754B9A4208D1CA7C5209D20704D0227D920601D49A1DCA8010BD70B56F
:200D00006A4872494030C07C4009C00707D06D4D6F482C8B2043288388472C8370BD884723
:200D200070BD70B5614C6B49264640363579A8004018406B80470A2D214610D054310A7879
:200D40009309DB0704D0B2730A7803231A430A702189CAB22B2A01D32839218170BD53319A
:200D6000EDE752494031087125281AD008DC0A2811D00B2811D0182811D01E2806D114E0A6
:200D80002A2810D03C2806D03D2810D0514980004018406B70475048704750487047504898
:200DA000704750487047504870475048704750487047F8B507463D4C4E20005D8509EE076F
:200DC000FB25002E17D0267D3407240F052C03D00124204202D012E00224FAE7C00905D0D9
:200DE000700603D54868800F012808D05B085B005208520003E0002801D02B402A40062B19
:200E000003D01020022B10D010E002232A403846FFF7E4FD002807DAC200B91A2039497E30
:200E20001422114200D10020F8BD024303433846FFF7D4FDF8BD70B5FFF7F4FD05002BD1F1
:200E400017491A480968403082892A4B9A4223D1CC690121090700228C420CD226494B7937
:200E60005B0706D5C868254A4000401C1060CC6012E0828110E0828175202149C0008847E8
:200E80000646204600F0B6F8002801D00325ED021B49B0B212398847284670BDD5E7FFFFBD
:200EA00008010021190602002506020060010021A5450200FD2C0200493B02000414000083
:200EC000FD380200A8000021FB2402004F1D020020200000C04F0200CB430021A7430021F8
:200EE0007B4300212943002103430021C342002171420021FFFF00004003002164470021F7
:200F0000E5400000F8B5204D20482C88C06A204E01070120090F40020227220B082920D0E4
:200F20000DDC01290FD0042914D11A49D20712D0224682432A80012088472C800DE00C29FA
:200F400001D00D2906D17069B84370610120124980020860F8BD01208847706938437061DE
:200F6000F8BD610AC907FBD0D107F9D00B4CA0470B490122486A920310434862094948631F
:200F80000020A047F8BD0000680000210060044000110440057D000080E100E0B745000054
:200FA000C00200210040044010B5034CFFF770FD20680028FAD110BD001104400B490A78E0
:200FC000FF2A04D10A4AD27A1207120F0A70084940318875704705490978FF2905D0000974
:200FE000000108430249403188757047A502002100620840F1B5264E00207479F768F060ED
:20100000244825460088C00502D50420044374711D22214B002100989847002809D1F168E7
:20102000031F002904D000990968CAB22B2A03D01846F7607571F8BD8905890F022902D16F
:20104000FB210C40747104210C400D40AC42F2D0124A09039160F8BD70B504460088152893
:2010600003D00F492046884770BD75200D49C000884705466068FFF7BDFF002801D0872400
:2010800000E00124074928461C318847204670BD4003002184020021994A0000001104409B
:2010A0000F270000C745000003B40148019001BDDD89000000000000000000000000000039
:2010C0002DE9F8436A4C6B496B4E20700020086009216A4801700D2141804FF40071818093
:2010E000674868490860377867480770FF2F7178417008BFFF29B2788270F378C370357934
:2011000005717679467114D1FF2A08BFFF2B10D1FF2D08BFFF2E0CD15C490A7802704A787B
:2011200042708A788270CA78C2700A7902714979417157490278574D574E584F0A704278ED
:201140004A7082788A70C278CA7002790A7140794871FF2028706870A870E8702871687194
:2011600000204F490880F06B4E4940780870F06B01784D480170F06B4C49807808704C493E
:20118000F06B90F83C0008704A49F06B90F83D000870F06B4069017947484A1E0270F06B4B
:2011A0004649C0783870F06B8069086008B924F0FBFAF06B4249C069086008B924F0F4FA10
:2011C0001CF0FEF8F06B3F49006A086008B924F0EBFAF06BDFF8F080406AC8F8000008B9D1
:2011E00024F0E2FAF06B3949806A086008B924F0DBFA0AF047FF07280BD112F091FF2078B1
:201200004FF480410BF050FDBDE8F243002024F0CBBA2F4801688847D8F800100A68814627
:201220009047D8F8002052F8041F00208847F068284A0188387801431180484626490A6844
:2012400090470C21254822F03FFB284621F0A8FE22F052FB2248002101604FF6FF718180AB
:201260004FF400512078BDE8F4430BF01DBD00BFE17B0020FC7A0020D04F00503C7A00207B
:20128000B63F0050007B00202C7A0020E8120050447A0020247A002000950200E77B0020A9
:2012A000967A0020E37B0020E07B0020E27B0020F67B0020F57B0020E87B0020F47A002056
:2012C000047B0020087B0020F07A00200C7B0020D8250020AC7B0020DC2500208C790020F1
:2012E000587A002052EC111B2DE9F04F57EC106B1346ADF13C0D10460693B846089220F0A8
:20130000004523F0004307913A4651EA030468A322F000470D9300F08580674C944208BF8F
:20132000002E7FD060A3654A0C93BA4208DBBA4200D12EB9AA4203DB9446AC4517D1B1B16D
:201340004146984698E80C00304608F0C7FF894682460899079898E80C0008F0BFFF0B46FE
:2013600002464946504608F0B9FF00F039BC564AB8F1000F4FF000090E9225D5504AAA42AB
:2013800020DDAC4220DC4F4B2A15AB42A2F2FF320BDD002958D1C2F1140245FA02F303FAA7
:2013A00002F2954210D11A4607E0C2F1340321FA03F202FA03F3994206D102F00109C9F1E6
:2013C000020901E04FF0020900293DD16246AA4225D0AC420CD1002807D50D9803C843464F
:2013E00032460CF0B3FA8846064641463046F7E3B0F1804F04D14346099632460A93EBE38B
:201400000E99814220D1B8F1000F1DD44346324643EC102B0BF0A0F951EC100BE0E3391B5A
:201420000E4301D10D9CFFE3BC4206DD002806D5014681F00043079A27E0002802D50C98D4
:2014400001462FE00346F6E728F00043B2460193EEB96246BA4203D0002F18BFBC4216D120
:201460000028324605D50D9803C80CF06FFA0B460246B8F1000F08D53F1B59EA07000CD06F
:20148000B9F1010F08BF83F000431046A9E34FEAD876761E59EA060318D126F025FA21226B
:2014A000CBA102600C46BFE30000000000000000000000000000F03F0000F03F0000F07F9D
:2014C00000004043000040410000E03FA9F101010E4314BF0D99C0A106C9C34E0991AE42B8
:2014E0000A92C0F26581B7F5801FA8BF002509DA0199BBA20CCA50460EF0C6FE6FF0340541
:201500000F468246B94905EB2755C7F313002746A5F2FF35814247EA000707DCB44981429D
:20152000DABF6D1CA7F58017012400DC0024B14800EBC40090E80C000197394600905046C8
:2015400008F0CCFE02460D980B4603C80CF0FEF90290009890E80C0088463946504608F044
:20156000B8FE029A8946834643460EF08DFE03900C9E04910846059096E803007B1043F07B
:20158000005101EB844101F500210C46059906460020324623460EF077FE0B46024649465A
:2015A000584608F096FE8346009890E80C0089462146304608F08DFE0B460246394650463F
:2015C00008F087FE059B00220EF05EFE0B4602464946584608F07DFE029A43460EF054FEC4
:2015E00004468B460398049902460B460EF04CFE884681460B4602460EF046FED1A20CCAFE
:201600008A460646414648460EF03EFECFA20CCA08F064FE43464A460EF036FECDA20CCA2E
:2016200008F05CFE43464A460EF02EFECBA20CCA08F054FE43464A460EF026FEC9A20CCA0C
:2016400008F04CFE43464A460EF01EFEC7A20CCA08F044FE0B460246514630460EF014FEE6
:20166000DDF81480039A8246894600204346414608F034FE5B4622460EF006FE0B460246CF
:201680004946504608F02AFE07460E460020414602460B460EF0F8FD02910FF2683901906B
:2016A00099E80C0008F01AFE33463A4608F016FE8A4605994FF000084046534602460EF06E
:2016C000E3FD0B9105905B462246514640460EF0DBFD99E80C008B4604465146404608F040
:2016E000F8FD029B019A08F0F4FD0B4602463146384608F0EEFD049B039A0EF0C5FD0B4616
:2017000002465946204608F0E9FD83468A46284622F000FB0E4607460B99059853465A466F
:2017200008F0DCFDB9A20CCA894640460EF0ACFD0B9B059A0C4605464046494608F0C9FDF6
:201740000B4602465146584608F0C3FDB1A20CCA0EF09AFD0B4602462146284608F0BEFD24
:20176000009A20320CCA08F0B9FDACA20CCA0C460546494640460EF087FD8A46834623469F
:201780002A4608F0ABFD009A10320CCA08F0A6FD33463A4608F0A2FD404633463A4689460E
:2017A00008F097FD009A10320CCA08F092FD70E0A049A942C0F228829F49B94200F302828A
:2017C000BC4219DA002840F3B98096A08046FDE1000000000000F87F000000000000F0BF84
:2017E00000000000000040430000E0418F9803007AB60B00308502000D9A01990CCA50467C
:2018000008F067FD89A20CCA83468A460EF03CFD0C460546514658460B4602460EF034FD01
:20182000E2A20CCA88468146514658460EF02CFD02460B46DFA003C808F04BFD53465A4601
:201840000EF022FD02460B46DCA003C808F041FD0B460246414648460EF016FDE2A20CCA3C
:201860000EF012FD0B4602462146284608F031FDE3A20CCA0C460546514658460EF004FD9B
:201880008A46834623462A4608F028FD00208946804653465A4608F01CFD0B4602462146BA
:2018A000284608F016FD0646DDF818A007980D4642465346514608F00CFD47464B463A468D
:2018C0000EF0E2FC079A8B4604465346294630460EF0DAFC0B4602465946204608F0FEFC8E
:2018E00083464B460E463A46404651460EF0CCFC8946CDF800B082464B463146524658468D
:2019000008F0ECFCCD4A0C460746A24232DDCC4924F00040814248DCE048201857EA000548
:201920000CD1214638464B46524608F0D2FC0B4602463146584616F08AFE36D8DDF8308027
:2019400044E1C046EF4E454A287ECA3F65DBC9934A86CD3F01411DA96074D13F4D268F512A
:201960005555D53FFFAB6FDBB66DDB3F033333333333E33FA01A57EA000540F02581B1A22B
:201980000CCA3146584608F0A9FC05468B464B4652463846214608F09CFC0B4602465946CD
:2019A000284616F097FEC0F00F810E9824F00041884243DA0C9A0CCAB94BC4F30A504FF428
:2019C0008017A0F2FE31002C47FA01F004EB0001C1F31305C1F30A50A0F2FF3045F48015F8
:2019E00043FA00F3C0F1140021EA030345FA00F548BF6D425046494608F06BFC89468246DC
:201A00001DE0C0460000000000000840F5015B14E02F3EBEFD033ADC09C7EE3F000000E018
:201A200009C7EE3F000000000000F07F44DF5DF80BAE543E0000F043FFFFEF3F45460098F5
:201A400031464B46524608F049FC8B4640464B46524608F03EFC024600980B46314608F057
:201A600038FC7AA20CCA0EF00FFC7AA20CCA82468946404659460EF007FC0B460246494660
:201A8000504608F02BFC75A20CCA0E460746594640460EF0F9FB04468B4633463A4608F0E0
:201AA0001DFC884600900B4602460EF0EDFB6DA20CCA894682460EF0E7FB6CA20CCA08F0F8
:201AC0000DFC4B4652460EF0DFFB6AA20CCA08F005FC4B4652460EF0D7FB68A20CCA08F050
:201AE000FDFB4B4652460EF0CFFB66A20CCA08F0F5FB4B4652460EF0C7FB024600980B461D
:201B0000414608F0E6FB824600985B4622468946414608F0DEFB0B4602463146384608F04F
:201B2000D8FB044600988B464B46524641460EF0ABFB56A20CCA0E4607464946504608F03F
:201B4000C8FB0B460246314638460BF0FFFE009E894682465B462246414630460EF094FB74
:201B60000B4602465946204608F0B8FB0B4602464946504608F0ADFB4346324608F0A9FB21
:201B800002460D980B4603C808F0A3FB8846024608EB0553B3F5801F1EDA0B46284643EC18
:201BA000102B0DF0C5FB53EC102B15E0000000000000D03F555555555555D53F000000009D
:201BC0000000E03F002813D50FF2C80825F08CFE2221016098E80C000A9909980EF054FBA5
:201BE0000B46024622E0C046FE822B654715F73F25F07AFE22210C9A01600CCAECE7C0461C
:201C0000000000604715F73FBC4204DC002806DD20A0044604E0002848BF1EA400D40C9C8E
:201C200025F062FE2221016094E80C00194610460FB041EC100BBDE8F08FC046000090404D
:201C400000CC9040FE822B654715973CEF39FAFE422EE63F396CA80C615C20BE0000000000
:201C6000432EE63FD0A4BE726937663EF16BD2C541BDBBBE2CDE25AF6A56113F93BDBE166A
:201C80006CC166BF3E5555555555C53F0000000000000040000000000000F07F00346F3F76
:201CA000FFFF0F002DE9F04F85B0804611F8010BDFF8E827009008F1FD00009B182B08F16F
:201CC000E70B08F1660508F20D1A08F5B07608F1860908F59C7408F5C67700F2CD83DFE892
:201CE00013F019006C0082018900CB03CB03F300A50308011D01F70004014901CB03CB0310
:201D0000A001CB0386016B01B103FD02FD025502CB03A10211F8010B89F80000022208F134
:201D2000880024F089FE0146022208F18A0024F083FE0146022208F18C0024F07DFE014637
:201D4000022208F18E0024F077FE99F80010B9F80220490089F800105200B9F80410A9F849
:201D600002204900A9F804100222B9F808100901A9F80810014608F1840024F05DFEE98BEC
:201D8000B8F80800091A89B247F6FF72914228DAB9F80600B9F80410B9F80820401C4900B0
:201DA0004843904201D33B201EE1012028770020A8F81E00012020706DE3052208F1610078
:201DC00024F03AFE0146022208F1920024F034FEB9F80C10B8F80800091A89B247F6FF72EA
:201DE000914280F24A82012189F80A100020A8F81E0071E29BF81600C2070BD49BF80D00F3
:201E00001A2101288BF80E1002D1FF220D213CE00D2101E200202870082201208BF81100D7
:201E200008F1A80708F1B00024F006FE0146022208F1B80024F000FE01460822384624F008
:201E4000FBFD04460821384624F00BF808F19C0704222146384624F0EFFD0421384624F024
:201E600000F808F1A00025F045F808F1980024F0EFFDDFF82C06018841F0800101809BF896
:201E80000D00012807D1FF220421404605B0BDE8F04F17F0AFBD6C7C0F2C18BF142C03D04F
:201EA0000E2C18BF0C2C0DD12F7C40461CF0C8FA0421404619F016FE012F12BF2146AC76AA
:201EC000FD21A9E10421A7E101208BF80F00E2E200202870A8718BF800000B2101208BF812
:201EE0000D0000208BF8010096E101208BF81000D1E2002302F10904CF5CE45C2743CF5438
:201F0000541CE45C2740C7545B1C082BF2DBA879002847D0404619F01BFEB2E2002302F166
:201F20000904CD5CE45C2543CD54541CE45C2540C5545B1C082BF2DB02208BF815009BF8B0
:201F40001700010703D440F64800B081F08150788106CDD530891B2804BF71891B2907D1A5
:201F6000B089B0F5A47F04BFF189B1F5A47FBFD0142151E19AF80000012811D011F8012B93
:201F80008AF8032008F58970022224F055FD0146022208F58A7024F04FFD01208AF80000B7
:201FA000A879002800F09F819AF8021000292BD1404618F0A3FC64E29BF81600DFF8E454D4
:201FC000C10609D412218AF80C1040461CF0EEFB002819D1287857E240461DF035FA00283C
:201FE00012D1287850E208788AF80B007EE10878307048787070287C01280CD1697C0F3929
:20200000012902D9C91F02D045E2607343E2387B40F001002EE205B0BDE8F04F002023F022
:20202000C3BB9BF81600DFF87C74820709D40F218AF80C1040461CF0B9FB0028E6D13878A9
:2020400022E208784A7800EB02202082CA78887800EB022060824A79087900EB0220A082E7
:20206000CA79887900EB0220E082087A20768A7A487A00EB022060830A7BC87A00EB02200B
:20208000A0838A7B487B00EB0220E0830A7CC87B00EB022020848A7C487C00EB02206084B0
:2020A0000A7DC87C00EB0220A084487D897D00EB0120E08408F5AA700490608B0390207E22
:2020C0000290B8F808000190E08A0090A38A628A218A404617F0CCFCA8B19BF816004107C8
:2020E00009D40F218AF80C1040461CF05FFB002849D13878C8E1404605B0BDE8F04F1E224F
:202100000F2120F035BA608AA9F80400A08AA9F80600E08AA9F80800022089F8000000205A
:20212000A9F80200B8F83400C01DE883B8F83210B9F80400B0EB510F02BFB9F80600B8F806
:202140003410884202BFB9F80800B8F83610B0EB111F19D0287C012804BF697C0F2905D0CB
:20216000687D18B10F21A976FE2155E0FC21404619F0B8FCE08A0090A38A628A218A98F860
:2021800006000FF081FF86E1102145E09BF8170010F0090F03D116218AF80C106EE1487883
:2021A0000A7800F0070002400A7008787A7B0240FA7210D0501E02420BD0510704D5B87BF6
:2021C00010B10421F97204E00220024219D14008FBD1F87A08B9B97AF972F87A042803D123
:2021E00040461BF03AFAB083F87A23F011FD3871B28BB97B01231EF08FF9318B814202D22D
:2022000008E0F872E5E7B28BB97B387901231EF083F9014679801721404605B0BDE8F04F39
:2022200019F060BC48780A78824207D100F00700104008702ED0431E18420FD01E221821CB
:20224000404620F095F998F80610002300221E2012F0E4F8387B40F040000BE1F87247F69D
:20226000FF728878C97800EB012038813989B8F80800091A89B2914201DB282134E00120E2
:20228000B871F87A042803D140461BF0E6F9B083F87A0AE0687C162806D1BA7A98F80610D1
:2022A0001346002012F0BAF8B87A3871B28BB97B387901231EF030F9318B814206D3B28B04
:2022C000B97B387901231EF027F90146387B798040F04000387301212170DCE0142B04BF48
:2022E000A879002806D13D218AF80B1001208AF80A00D0E008784A7800EB02207082CA78E3
:20230000887800EB0220F0824A79087900EB022030828879C97900EB0120B08208F5B0719C
:2023200008F5B0708A8AC089B97A904288BF1046042905D140F691229042B8BF4FF4296080
:20234000F28BF0839042B87A14BF01250025042803D140461BF081F908E008F5B07008F55E
:20236000B0718089CA8A904288BF1046B28BB08308F5B071904208F5B0704A8A008918BFBF
:202380000125904288BF1046328B3083904218BF0125B28BB97BB87A01231EF0BDF8318B23
:2023A000814206D3B28BB97BB87A01231EF0B4F80146798008F5B07008F5B0724189108A20
:2023C000728B814288BF01467183914298F8063014BF0120002005438A4233490A6802EB1F
:2023E0004311728B8041121DC00F0A7610B1404620F0C0FE009814280ED145B1F08B009084
:20240000738BB28B318B98F8060012F065F81521404616F0A2F934E01DB1387840F00800A9
:202420003870397841F02001397034E008780E280ED00F2809D0122804D014280CD016282C
:2024400012D028E00020207225E00120207322E003208BF815001EE0387840F002003870E2
:2024600040F01000387016E0387B40F00200387340F0100038730EE08AF80C3040461CF0C5
:2024800095F940B9074800784FF4804105B0BDE8F04F0AF009BC05B0BDE8F08F48770020DA
:2024A000AE7B0020E17B0020D87A00202DE9F84F012020F08FFD012819D1DFF8AC66307827
:2024C00000210FF0B9FE5FEA000904BF002023F06BF9002089F8080009F1040015F06EFC63
:2024E00007F068FB050003D1812019F06FF837E30120687105F59774DFF870064178491C14
:202500004170A879DFF8681689F80A0030780870402011F049F82860D9F854104A78D9F8F7
:202520005000D1061ED5816C0A681179032904D00CBF0120002023F037F9D9F85000816C3B
:2025400090F86C000A6802F1080A01281CBF002023F02AF9D9F850102A68486F00F5B06037
:20256000D06041E0C16E0A681179032904D00CBF0120002023F018F9D9F85000C16E90F8D7
:2025800098000A6802F1080A01281CBF002023F00BF9D9F85010DFF8DC25D1F8A0002968EE
:2025A000DFF8D435C8609AF82660032E19D8DFE806F002050C0F00F5B06001E000F534707B
:2025C000C8601088E087108808E000F5355001E000F6B870C8601888E0871888A5F87401FA
:2025E00002E000F5B060C86006222868DFF88C65C168DFF88C8501F59071C1600AF1020125
:202600009AF80000C0F38010207005F594701FF05BFC04220AF10E0105F124001FF054FC48
:202620003068AF7900F10C0304220AF10E0103EB47101FF049FC3068AB7900EB43100322F2
:202640000AF1120110301FF03FFC05F12C079AF81500B87002220AF1160105F130001FF07F
:2026600033FC02220AF1180105F132001FF02CFC02220AF11A0105F134001FF025FC38893F
:20268000688402220AF11C0105F136001FF01CFCB87879894000B8700901B88879814000A1
:2026A000B88089B2F8884000F88003046A8C521CDB0B5A438A4201D280B230B998F8000037
:2026C00080210AF0F1FA3B2154E105F12E01284623F08EFA0520A881284623F009FE0522B8
:2026E0000AF11E0105F161001FF0EEFB9AF823004009387022F0CEFE6882B9F82A10401ABE
:20270000A08105F161019AF82300DFF8784400F01F00F8734FF01C0A28461EF042FCD9F88E
:2027200054104A78D9F85000D1064CBF816CC16E41F62102086800210171A97920681AFB38
:2027400001F142520022A9791AFB01F101444A80A9791AFB01F108444260D9F85410DFF876
:2027600028044A78D1060DD5DFF820148A7851060AD5DFF81C140A8841F20A439A4208BFB3
:20278000DFF81004C5F89C01D5F89C11284688472168AB7901F10E021AFB03F3D054A9793D
:2027A00020681AFB01F108440021C173DFF8E803017889B1B88878B900217973012028812C
:2027C00068812846D5F89C1188472168AB7901F10E021AFB03F3D054A87921681AFB00F0CC
:2027E00001F10E02125C7A73D9F854104A78D1061FD505F5CB7B9BF8000008B922F0D4FF41
:20280000A97920681AFB01F108449BF800104A1E0274A97920681AFB01F108440021417467
:202820002068AA7900F112011AFB02F2002088522CE0D9F85010236891F840201844027463
:20284000A97920681AFB01F10844D9F8501091F841204274D9F850002168AB79403001F17A
:2028600012021AFB03F34188D15205F5CB710078012200F0030082400A70D9F8502092F882
:202880004000800814BF0120022008712168A8793368DFF808B301F114021AFB00F103EB0E
:2028A00040105050A97920681AFB01F10844BC498161DBF814000078D6F800C095F806E0E4
:2028C000C107DBF8141009784CBF102000208A07DBF8142012784CBF202100215307DBF8A1
:2028E00014301B784CBF402200221B074CBF80230023084310430CEB4E1C184340F00F00E6
:202900008CF808000B223068A97900EB411042723168A87901EB40110422A2488A720178D8
:20292000012906D13268A87902EB40110122CA7207E0DBF824003168AA79407801EB4211AD
:20294000C8723068A97900EB41101F2202763168A87901EB401100224A76A87910F094F808
:20296000AA79316852018850AA7931685201885820B90721284622F039FFF1E08A48AA7902
:20298000016801EB021024F09FFE874BA87931681A6801EB401102EB00104860A979306875
:2029A00000EB41125168F963AA79520181587964042198F800000AF077F9D9F8540041789B
:2029C0002268C80648BF02200AD4A8791AFB00F01044007C00F00300022814BF0420062068
:2029E000B988DFF8B4C143189CF8000010B109B9F8881B18688A95F806C058434FF4C871C9
:202A0000B0FBF1F0401C1AFB0CFCAB6168616244D5F800C0DCF80CE040F6C41101FB03E3FC
:202A20001B1AA3F5A8639360AA7920681AFB02F283189A682B689A6000F10C03AA791AFBB5
:202A400002F20C309B5C03F0EF038354A87922681AFB00F002F10C030C321B5C03F07F03B7
:202A60001354A87922681AFB00F002F10C030C321B5C03F0F00343F002031354AA79206858
:202A80001AFB02F21044427B02F0F00242F001024273AA7920681AFB02F2024490682A68CA
:202AA00010613068AA7997F802C000F1140368694000520111FB0C0000F5F660985095F855
:202AC000960104280DD13068AA7900F114034FEA421C143053F80C20AB795B0102F5616206
:202AE000C2503068AA7900EB4210C37C03F0F00343F00403C374DBF830003268AB7900680D
:202B000002EB4312FB8843436427B3FBF7F35943A1F59661D161A879316801EB4010C17EB7
:202B200001F0F00141F00401C176A97920681AFB01FA2968504448600E21284618F0D2FF49
:202B40001A4907200870484624F078F8AA79002148461BF00FF828681549416115498161AD
:202B6000BDE8F14F04F0EABEF37B0020347A0020F47B0020B07B0020B27B0020D87A0020DF
:202B8000E17B0020DC7A0020F5EE010048770020B87B0020E9E30100607A002000950200CF
:202BA00034770020E57B0020E47A0020DF7B0020A9140200020480802DE9F84302461078EC
:202BC0005168002800F02483401E00F01983801E00F05D8308380E2800F25C83DFE810F017
:202BE0003002B400540350034C0390003C0378002C0354002803240310005A032003C04644
:202C000042F20C3442F21430C2F20004C2F2000021680068884227D146F6E0120220A72191
:202C2000C2F2000211F088FE42F23C31C2F20001087048B90120002112F002FF2068401C5F
:202C4000206027E34FEA08080220002112F0F8FE42F22831C2F200010868401C0860206868
:202C6000401C206016E3C04642F22C31C2F200010868401C08600220002112F0E1FE206853
:202C8000401C206006E3C04647F2707142F6BA230520C2F200010022C2F20003086147F6E1
:202CA0008030C2F2000000681A70012224F082FD50B91BF0D1F847F66C30C2F20000006836
:202CC00024F05EFEE6E2C046FEE74FEA0808C04642F23A3443F6B911102081220123C2F232
:202CE0000004C0F20201009418F05AFBC0B2002800F0D08210202070CCE24FEA0808C04691
:202D000047F2707142F6BA230520C2F200010022C2F20003086147F68030C2F2000000685F
:202D20001A70012224F046FD50B947F66C30C2F20000006824F024FEACE24FEA0808C0467E
:202D4000FEE74FEA0808C04647F2146542F248370320C2F20005C2F200072870386829469C
:202D60000DF096F842F24C36C2F200060028307076D0696845F628144FF4A072C2F20004F5
:202D800004F5A07013F05EFCA86845F6E8414FF4A072C2F2000113F055FC286947F6D41148
:202DA000C2F200014860E8680860386816F0D8FF002542F210313570C2F20001086842F2E9
:202DC0003032C2F20002401C086012782B46A0204FF4A0710FF080F842F23330C2F2000046
:202DE00002784FF4A0712B46A0200CF0B1FB42F23230C2F200000078002841D042F2EC26EB
:202E0000C2F20006306847F26C15C2F200054FF4A0712860204610F0A3F847F61C20C2F2E3
:202E20000000C0ED010A80ED000A90ED010ABDEEC00A10EE100A4FF4A07102B220460BF0E5
:202E4000C7FF306847F27011C2F2000108602A6847F27411C2F20001801A086010E0C04640
:202E600045F6682000214FF4A072C2F2000016F03CFF42F21C31C2F200010868401C0860BA
:202E800042F2EC26C2F20006306842F2F42847F6E419C2F20008C2F20009C8F80000B9F925
:202EA000000046F6E017C2F20007011287F8A01087F8A10099F8040042F20C34C2F2000401
:202EC00087F8A2002068000E87F8A3002068000C87F8A4002068000A87F8A500206845F6E9
:202EE0002815C2F200054A46394687F8A60028461EF05AFC05F1A00007F128014A461EF081
:202F000053FC05F5A07007F150014A461EF04CFC05F5F07007F178014A461EF045FC3068E7
:202F200042F2F821C2F200010860D8F8002042F2FC21C2F20001801A0860384613F0ECFDC5
:202F40000220A7213A4611F0F7FC42F23C31C2F20001087040B90120002112F071FD206812
:202F6000401C20601AE0C046087842F23D3242F22431C2F20002C2F200011070086847F235
:202F80008012C2F20002401C0860106824F0F8FC206842F21431C2F20001086042F23830EB
:202FA000C2F200000078C8B344F6184729464FF42072C2F20007B81C13F044FB45F6A831A8
:202FC0004FF4207207F28220C2F2000113F03AFB42F62900388020682068000CA7F80205B9
:202FE000206842F21031C2F20001A7F804050868000CA7F80605086842F23932C2F200028C
:203000000021A7F8080547F6A830C2F200000068117040F20A52394624F00CFC47F260115E
:20302000C2F2000130680A6847F26413C2F2000347F268111860C2F20001801A086029E17F
:2030400047F28410C2F20000006824F099FC42F2EC25C2F20005286847F69434C2F2000493
:2030600047F26011C2F200010860206824F05CFC47F28811C0B2C2F20001087040B946F6EF
:2030800038100021A722C2F2000016F02EFE54E0206846F638160022C2F20006314624F06B
:2030A000E1FD286842F20034C2F200042060304614F09AFC96F8A01096F8A10047F6DC1755
:2030C000C2F2000740EA0120388096F8A20045F6A838C2F200083A464146786030461FF0C7
:2030E000FBFF06F1280008F1A0013A461FF0F4FF06F1500008F5A0713A461FF0EDFF06F1D4
:20310000780008F5F0713A461FF0E6FF286842F2043242F24031C2F20002C2F200011060EB
:203120000968236842F20832C2F2000242F24434C2F200042160C01A106047F2146442F25B
:2031400048350320C2F20004C2F200052070286821460CF09DFE42F24C36C2F200060128A7
:20316000307011D045F6281000214FF42072C2F2000016F0BAFD42F21831C2F20001086852
:20318000401C086086E0C046616845F628104FF4A072C2F2000013F055FAA06845F6A8314C
:2031A0004FF4A072C2F2000113F04CFA206947F6D411C2F200014860E0680860286816F06E
:2031C000CFFD002447F27C1142F23032C2F20001C2F200020123088812783470401C088072
:2031E000A02120460EF078FE42F23330C2F200000278A021012320460CF0AAF94AE0C04655
:203200000888B0F5304F45D108461FF009F941E00888B0F5304F3DD1084612F015F839E02C
:203220001CF02AFA36E0C04622F07EF932E0C0461DF096FE2EE0C04642F23A3043F689414B
:2032400081220123C2F20000C0F202010090102018F0A6F81EE0C04647F2707147F68030CD
:203260000422C2F20001C2F200000A610068012224F0A0FA0EE0C04620F0EAFF0AE0C0463E
:2032800008F0A2FA06E0C0460DF026FF02E050681CF07AF9BDE8F8832DE9F04F41F624742F
:2032A0008346C2F200049BF802106069ADF12C0D0A290FDC0A2900F0FF80002900F0648289
:2032C000491F00F04D82491E00F00A82C81E00F0EB8185E20B3900F0CF80C91E00F0BC80A5
:2032E000491E1DD0481E40F07B82A069002800F0F4810168002900F0F0814FEA0808C0460F
:20330000C87A48B9002900F0E8812078042109F0CBFCE2E14FEA080809680029F0D1DCE147
:20332000D84638B1416829B1BBF804000B4600210A469847A179607831B1B8F80400E179C9
:2033400022F071FD01204CE230B9B8F80400052122F069FD012044E2B8F804001DF0E4FF78
:20336000071C00F03D8298F80A00400810D3797971B101290CD0D8F80C00800A08D200223A
:20338000B81D01F00101009213460EF071F830B9A07A02280CD198F80A00000908D2B8F8DC
:2033A0000400032122F03FFD00201AE24FEA0808B8F8049097F805A00C2023F04DFE0746E3
:2033C00008F10800002F06462BD0A7F8089087F80AA000213960F9724EB108211CF000FCC1
:2033E000786028B9384623F04FFE0120F9E17960A069A8B10246106878B101464FEA080887
:2034000008680A4648B10168024631B108680A4618B1016802460029F2D11760384603E062
:20342000A761381C00F059810121C17232464846514609F035F86069002800F04E814068F6
:20344000002800F04A810346002148460A46984743E14FEA0808C046002800F03E8141686F
:20346000002900F03A81BBF804009BF801200B460221984731E1C04623F0E2FE002800F097
:203480002C81606980B1046874B1DBF810000090BBF80A109BF80C209BF80D300BF1030026
:2034A000A04701209DE1C046BBF80A00012122F0BAFC12E14FEA080800229BF8011009923C
:2034C000002940F0DE809BF806104908C0F0D980114602A8082224F067FABBF804001DF0CE
:2034E00023FF051C18D1A069002800F0A7800168002900F0A380C046C87A48B9002900F051
:203500009D802078042109F0CFFB97E04FEA080809680029F0D191E0DBF81470002F00F00C
:203520008380099907F1110006220A9122F01CFF002850D00A993846062222F015FF00280E
:2035400044D197F810A00A9E11370AF0010AC046761C002FF6B23E7032D0DDF82880A1469F
:2035600009F150094FEA080848463946062222F08FFB18B199F80600504525D0BAF1010F39
:2035800017D1787920F03F00402812D10620102104AA18FB00F02330C0B220F00DFA04A828
:2035A000102122F05EFC384604A921F0E9FA01280AD008F1010809F10809B8F10A0FD3DBCF
:2035C00026B108E04FEA0808002EC1D101210A910998CBF814000A98012825D0DBF8140047
:2035E00060B30746387C062207F1110100F001008DF80E0002A81EF067FC687907F11106F6
:20360000012805D105F10C00A91D06221EF05CFCA81D314606221EF057FC387C40F00200AA
:2036200068710BE04FEA08086879A91D062200F001008DF80E0002A81EF046FC9BF8061087
:203640009DF80F20C1F3800010438DF80F00080905D39DF80F0040F008008DF80F0002A888
:20366000594604F0A9FC099030B9BBF8040013F037FF606930B930E0BBF8040019F058FCCA
:20368000606950B3416841B3BBF804009BF801200B46012198476069099A4368BBF8040036
:2036A0000321984719E0C046002300939BF803100BF104000DF1210201F001010DF0D8FEC5
:2036C00058B99DF8210006210BF10C0210FB01F025300421C0B220F0D7FA012081E0C046A1
:2036E000BBF8040019F024FC15F048FA002877D1607B012819D0A07B012811D0002641F6C4
:2037000043753446C2F2000515F8010F012803D120460CF0BDFC2E70641C0A2CF4DB17E06F
:2037200017F0A2FB0020A07312E000254FEA080828460CF0ADFC6D1CEDB20A2D01DA0028DD
:20374000F6D0002104F120000A22617324F02CF950201FF041FD17F0BFFB41E04FEA08084C
:203760009BF8010000283BD19BF80300BBF80A209BF80C300BF1040100F0010009F0E4FB75
:2037800000202EE04FEA08089BF8010040BB24F0B7F8054624F0B8F8044623F017FF8DF859
:2037A000200010212A46022020F06EFA03201021224620F069FA0420012108AA20F064FA19
:2037C0009DF82000012803D09DF82000032807D101201FF071FF02460620014620F054FACD
:2037E00000200BB0BDE8F08F2DE9F843040014D1002021F0D9FF10E020461AF0D7FF012828
:2038000008D063E08A0740F1578101F0FD0101700020B07120461AF013FE04F16605687D8C
:20382000002853D0697CDFF8CC94022904F1EC0704F59E7804F5B07604F5C67035D004297F
:2038400047D005295DD0062900F08B800729D3D0092900F0EF800B2900F0C3800C2900F0DC
:203860000B810D2900F0D3800E2900F0ED800F2900F02B81102900F04581112900F05F81E2
:20388000122900F01181142900F08A81162900F05D81172900F07881FC2917D0FD2900F0DB
:2038A0009881FE2900F0A481A2E7297C012909D199F80300002813D01621204621F096FF9F
:2038C000012004E0204619F099FE28740020BDE8F283297C012940F0A78199F80200002825
:2038E00000F0EA800021A971FF22FC21204616F081F8A07904F1B80204F1B00110F050FB57
:203900008BE7297C012910D199F8020020B184F89410002038607860B87A01286AD1FF22BA
:203920000621204616F066F877E704F1E7063078012808D120461EF04FFC0128C6D100200D
:20394000B8720120C1E770780028BFD004F1C70204F1A00104F1D7001DF088F90120307066
:203960005BE7297C012940F0668199F80200002840D0618CE18320461AF062FD012028707B
:2039800020461CF05DFD0120A871397A787C012900F010000FD148B1002088F80500D8F802
:2039A000001098F80600490815F0EAF8A079002115F066FF0FE048B1D8F80020DFF838039B
:2039C00004F5A1735208214612F0B2FCA0790122002115F0A1FB002038723873F872B87262
:2039E0001BE7287C012806D1F97A012904BFFF22FC2196D060E0204618F0D2FC01289DD10A
:203A00000020F87284F894000120287405E7297C012940F0148199F80200002809D000211A
:203A200084F894100120287020461CF009FD0120A87188E0297C012940F0058199F802007B
:203A4000D0B3618CE183E5E6287C012840F0FF80387C022804F1FD0204D1A179002015F065
:203A60009BFBD7E6032840F0FB80A1791A2015F093FB00203874CDE6287C012804F20D11D6
:203A800040F0F9800B78012B04F5897240F0F9804878012807D15388009300201388CA7805
:203AA000A17915F02BFFB5E6297C012940F0F88099F802000028F6D1298B481E288380B232
:203AC00000287FF403AF2221F7E6287C012840F0EB8098F80910012902D130780F281BE091
:203AE00098F80800012826D1002188F80810288D000900901A20AA8CEB8CA179520810F0AC
:203B0000BFFE87E6287C012840F0D28098F80910012910D1307810281CBF002021F044FE4A
:203B2000002088F80900288D00090090AA8CEB8CA1797078E2E7287F0028E2D1BCE7297C4C
:203B4000012940F0B98099F80300F5E7297C012940F0B680017B4A061DD4CA0709D501F0D0
:203B6000FE0101730023A1797078002210F056FC50E68A0740F1A98001F0FD010173002392
:203B8000A17900221A20F1E7297C012940F0AA80027B510690D5017B01F0BF01017339E6B5
:203BA000297C012940F0A08001788A067FF52AAE01F0DF010A0701700AD501F0F701017005
:203BC000F08B0090738BB28B318BA07910F084FC1EE6A97EFF22204615F00CFF14E7FF226C
:203BE000204615F007FFACE6002021F0DDFD6DE6A97E0C2918BF0E29F1D00F2902D01429F2
:203C0000EDD0F1E7FF22FC21204615F0F3FEB8F812000090B8F81030B8F80E20B8F80C1089
:203C2000A0790EF031FA51E6204613F05BFA2874E88A28834AE620461BF08AF8F7E720462D
:203C40001DF0B2FBF3E7204617F082FFEFE7204617F0B4FF2874E88A28830120387435E64B
:203C6000288B401E288380B20028F8D1A179222015F092FA27E701208870204616F03EFEA9
:203C8000D5E7288B401E288380B20028E7D15088009022201388CA78A17915F02FFE12E7CE
:203CA00020461BF0A9FBC2E7204612F065F8BEE7204612F0B3F8BAE7204619F051FBB6E7D0
:203CC0001621204611F019FCB1E7288B401E288380B20028C3D1A17900230022222010F04E
:203CE0009DFBF0E61721ECE71421204614F035FD9DE700BF3477002071A901002DE9F84FF4
:203D0000DFF87444A178FF2904BF002021F04CFDA07823F0E5F8044604F1680504F5C976AA
:203D20002968086804F1900708B100200EE0A97B002904BFA87E002809D13978002901BF5D
:203D400030780028217F012901D1608CE0832189E08B4118491C6181204621F069FD0128ED
:203D60001EBFDFF818040178012904D120890022401CE28360814FF6FF78A87E01280DD1A5
:203D8000AA8B6189208920F0D3FE38B1218960894A1C93B298422CD0A88B20E03878012871
:203DA0000DD17A886189208920F0C2FE38B1218960894A1C93B298421BD078880FE030783D
:203DC000012816D172886189208920F0B1FE80B1218960894A1C93B298420AD0708892B228
:203DE000904206D04044608180B223F037FD4044E083307801280DD120897188401C80B277
:203E0000814207D172793271002030701346A17910F004FB04F59A71087920B12089002127
:203E2000401CE183608104F12E07A87E01283ED12289A88B521C92B2904238D1608104F118
:203E40008601204621F0D4FEA88C6189608400202077E083E0894118A181A88B218923F0A2
:203E6000FDFC8046B988288C6A8C01FB0808E88C8A4204BF3989884202BFA98CFB889942A9
:203E800007D000090090AB8CA1795208002010F0F7FCA87F3870688CB880A88CF880E88CD9
:203EA0003881204622F024FA0220A87601E0B7F80480E28BDFF8C892501C00FB08F040F62C
:203EC000C41808FB00F100912368D3F80CC06144DFF8B0C2D960DCF800E0AB499EF800A05A
:203EE0000B884FEA9A1ABAF1030F15D199F80FC05FEACC7E48BF00230ED45B1C1FFA83FC91
:203F0000BCF1010F11BFB4F812C004F59A7CBCF806C00CF2DC5C01E0B4F812C00CFB00FC75
:203F20004FF4C87EBCFBFEFC0CF1010CC4F814C00B80A06184F820204FF01C0BDFF84CA23A
:203F4000A379DAF8000000F108021BFB03F3D1582268116100F10801A379D26860691BFB18
:203F600003F3121ACA50DAF80000A37900F108021BFB03F3D1582268916000F10C02A17953
:203F80001BFB01F10C30525C02F0F00242F002024254DAF80000A279811C1BFB02F20020CB
:203FA0008852307908B921F0FFFBDAF80000A27900F1100130791BFB02F240088854A079D3
:203FC000DAF800101BFB00F00844002141743079042814D1A079DAF800101BFB00F001F12A
:203FE0001002337A125C103142EA83020A54A179DAF800001BFB01F1084420214174DAF83C
:204000000000A27900F112011BFB02F2002088525F49A0790A6802F114034FEA401C143265
:2040200053F80C00A379D4F814C05B0100EB4C00D050A87E02280CD10A68A57902F11403F3
:204040006D0114325859A3793D785B0118FB0500D05099F80F00C2075BD5DAF80000A5790D
:2040600000F108031BFB05F508305A59A3791BFB03F3A2F5A862C250DAF80000A57900F18D
:2040800008031BFB05F55A5923689A600098121A1A610868A57900F114036D0114305A5993
:2040A000A3795B0102F5F662C250307904280BD10868A57900F114036D0114305A59A3795F
:2040C0005B0102F56162C2500868A37900F114025B01D058C4F834012E4A0B68106BA6792B
:2040E000006803F11C05BB8843436427B3FBF7F3760108FB03F0A0F59660A851264B187865
:20410000012821D10968A07901EB40110122CA7221E030790A68A57904280CBF4FF4AA50F0
:204120004FF4E66002F114036D015A59101ABA8808FB02F2A2F516729042CDD30821204648
:2041400021F054FB012015E0506A0968A279407801EB4211C872A179DAF800000F4A1BFB17
:2041600001FB2168584448600720107020461DF099FB0020BDE8F28F347A0020EE7B00202B
:2041800034770020007B0020BA7B0020DC7A0020D87A002000950200E57B0020DF7B0020EB
:2041A0002DE9F84F040004BF002021F0FDFA04F1500941F62300D9F800603080002070801A
:2041C00023F096F800F57A60B0608220307302207073B0682061207EB0730020F073D9F867
:2041E0000400017D022904BF002021F0DDFAD9F80400007D012802D10020002104E0832829
:204200000CBF0620022020213074717404F1240BD9F80400DFF8BC834178480615D5D8F8F1
:204220003C00416908689BF80510401C01EB4101405A7082607DC10604D5E07F40F040001E
:20424000E07702E040F04000607506F15805002028714FF01E0A9BF81A00800000F004004B
:20426000287104F13000B066607DC10646D506F130003062D9F8040041788A060BD5617D16
:2042800001F0FE016175407810F0030F03D1E07F00F0FE00E077607D1EF085FF0246A27548
:2042A000521C307CC0F38001002392B200F003001CF098FCA0831E23A08BE27D00F59671CC
:2042C00000F59B7012FB01F290FBF3F30A320AFB13006283C0B208B1C0F11E008018A1837E
:2042E000608380B2B168A63001EB800131660220E871E07F40F00800E07713E0002737629A
:20430000607D40F001006075D9F804104A78510744BF40F002006075607D1EF044FFA0756E
:204320003766EF71A07D217D60F3050106F1880021750170617D4170032181709BF81A1085
:20434000890001F0040141F0030181709BF81B20D20002F00802114381700021C170C6F8C7
:204360009010BBF81C00C0F30B00ABF81C00D9F80410CA7D40EA0230ABF81C000022617D0A
:2043800001F0FE0120460EF0B7FC40F61200B0830020F083D8F83400018889007162D8F84F
:2043A0003400008800B1072006F128073870607DC1064CBF002002207870E07D788041F636
:2043C0002400388100207881618BB06800EB8100B0630021822038750220787594F8210038
:2043E00000F03F00B875F975D9F80400807D012818BF022803D100F07F00401E04E08328C7
:204400000CBF06200220202179763876D8F83C00416908689BF80510401C01EB4101405AB9
:2044200078830020F066D9F80400417811F0030F24D01FF09DFEF066D8F818000078C1074E
:20444000D8F8181009784CBF102000208A07D8F8182012784CBF202100215307D8F8183086
:204460001B784CBF402200221B074CBF8023002308431043184340F00F0028760020687653
:20448000D9F80400807C00F0030068769BF81A10890001F00401084368769BF81B10C9008E
:2044A00001F0080141F01001084368764A49087838B1697E41F040016976287E00F0FE00CF
:2044C0002876E07F1EF06FFE84F8200020460EF079FCE07FC1063BD5D9F8040094F8202018
:2044E0004178521C88074EBFD21E9BF81F001218387EC0F380010023D2B200F003001CF09D
:2045000071FBABF80000BBF8000000F59671C1F11E0291FBFAF10AFB012A8BF804A0D9F86C
:2045200004104A7891074CBF00214FF49B710818ABF80000ABF80200BBF800109BF80420B0
:20454000B06B5118A63100EB81007067022001E000207067E87604F13000C6F8800006F10B
:204560008400D9F804104A78510706D504F138010160687E40F0200006E018490A685168A6
:204580000160687E00F0DF006876A17F94F8200060F30501A17740F60B00B8840020F884D1
:2045A000D8F83800018889007165D8F83800008800B1072028700220687094F84500688058
:2045C000D9F804004178880744BF012068800020BDE8F28F00950200607A0020347B00200C
:2045E0002DE9F04F42F6CC2A42F20479C2F2000AC2F20009DAF80000D9F82020056941F288
:20460000E941C0F20201ADF1140D09F11C0423460120A847029418B1DAF800008068804789
:2046200048F2AF40C0F20200047809F10206C0461AF0EAF8039020B118F0DEFC4FF0FF3079
:204640000390D9F8080000B180474FF0000805E10098D9F80C1010F8062CA0F10C0B032AB5
:2046600000F0FA809DF80520002C00F0ED80D9F824004146401EC04610F8013F9A421BD09E
:20468000491C8C4240F2E08010F8013F9A4213D0491C8C4240F2D88010F8013F9A420BD092
:2046A000491C8C4240F2D08010F8013F9A4203D0491C8C42E0D8C7E0CDB2FF2D00F0C480DD
:2046C00032789BF804104046FF2A11D091420BD072780120FF2A0BD0914205D0DAF80000C2
:2046E00080688047FF2007E040F08000C0B203E040F080023154D0B29BF80610012904D0A0
:20470000022904D10099887001E000990870009F99F800E035F07F0362D1002F00F09E80EF
:20472000DAF8001035F07F0001F1080101D008688047AC4248DD57F80C0C00283AD117F834
:20474000020CFF2836D142F2D85007F8025CC2F2000000688047414647F80C1CD9F804209E
:20476000BC46CAB152F80C7C9FB14FEA0808C04657F80C3C3A4663B153F80C7C1A4647B1F5
:2047800057F80C3C3A4623B153F80C7C1A46002FEED142F80CCC01E0C9F804C042F2DC5134
:2047A000C2F200010968884728464FF4004108F07BFA53E0381C51D010F8021CFF294DD191
:2047C0000C3822F061FC49E0381C47D010F8021CFF2943D10C3822F057FC3FE04FEA08081F
:2047E000A7F10C00BEF1FF0F99F801B0049005D0D9F8240004EB0E0110F801B0DAF800002F
:20480000BBF1FF0F1CD085F08005022D03DB80688047DAF800000499FF228A72D0F800C028
:20482000715D3B4658464246E047B8B1381C15D010F8021CFF2911D10C3822F025FC0DE0A6
:20484000806880470AE0C046DAF800008068804704E04FEA0808C04601B18847DAF80000B2
:20486000C3690DF105016A4601A8984700283FF4EFAE47F6A030C2F2000000684FEA080866
:204880004FEA480B30F80B703FBB08F101085FFA88F844455BDD4FEA480B30F80B70E7B984
:2048A00008F101085FFA88F8444550DD4FEA480B30F80B708FB908F101085FFA88F844458C
:2048C00045DD4FEA480B30F80B7037B908F101085FFA88F84445D3DC39E0444537DD42F29A
:2048E000D850C2F200000068804747F6A031C2F200010A6842F2DC57C2F20007002332F809
:204900000B50396822F80B30884748F20460C0F2020050F8282089F80080294640469047C8
:20492000FF21804642F2D850C2F20000006889F80010804747F6A031C2F200010A683BF859
:204940000230396848EA03082BF80280884719F05BFF07460398B8422DD0002F04BF4CF261
:204960008E27C2F6F507D9F81800B84238BF071C42F2D850C2F20000006880478046DAF8FA
:204980000000016AD9F81C008847D9F82020DAF80000029B521CC9F82020C56841F2E94177
:2049A000C0F202013846A84742F2DC50C2F20000016840468847D9F80470DAF800C0D9F85B
:2049C00010000CF1140CDFB90CB34FF00008C04647F6A030C2F20000006830F8187047B135
:2049E000DCF81010D9F810008847DAF800C00CF1140C08F101085FFA88F8A045E8DB06E0FB
:204A0000DCF810108847DAF800C00CF1140CDCF800104FF0FF3088470AE602220BF02EB80E
:204A20002DE9F04FADF13C0D0D90076840688A460E9023F013F997F89810012904D123F0B0
:204A400009F90020EAE1C046012487F8984023F001F9002038639AF800003870DAF804000F
:204A60007860DAF80C000AF11001F8600A6807F11000026089888180DAF81600C7F8160071
:204A8000BAF81A007883DAF81C00F861DAF820003862DAF824007862DAF82800B862DAF8C6
:204AA0002C00F862DAF830003863386B002101712046F86010203882788A41F26372104398
:204AC00002407A824FF49070B8821520B875FC751E2038767C763020B876F976397E0025A1
:204AE0002E4601F00300401E06D0401E08D10E1106E04FEA0808C046387E05EB2015EDB215
:204B0000B87D00F00304641E06D0641E08D106EB2016F6B204E0C046B87D05EB2015EDB204
:204B2000BC7E34F07F0402D04FF0030C01E04FF0020CF869BC7E0CFB00FC34F07F0405FB01
:204B40000CF501D0032000E00220FA69796A50434643A819B1FBF0F4062C08D3002005B1C8
:204B6000204606B10019F96AB1EB001F08D223F075F8002487F8984023F06CF820464DE101
:204B80000E9880790EF004FF0A200EF001FF0D9809F026FC60B90E9880790EF075FB23F054
:204BA0005DF8002487F8984023F054F8204635E1002D51D047F650180021C2F200084046F4
:204BC00023F044F847F63819C2F2000947F29C700021C2F20000C0F80080484623F036F81A
:204BE0004FF0000847F29870002CC2F20000C0F8009037D046F6685BC2F2000B4FEA0808F7
:204C0000386AD7F8289005FB080109EB0819A8EB0400B0F1FF3FC9F80C100DD047F29870DC
:204C2000C2F200000068494623F00CF8012089F808000AE04FEA080842F2F460C2F2000099
:204C4000C0F80090062089F808004BF8289008F101084445D4D805E047F29C710020C2F22C
:204C600000010860002E5FD047F65C180021C2F20008404622F0EAFF47F64419C2F2000908
:204C800047F2A4700021C2F20000C0F80080484622F0DCFF47F2A070C2F20000C0F80090FA
:204CA0000DB1A34601E04FF0000B002C4FF0000840D04FEA0808C046D7F82890386A05FB27
:204CC0000BF108EB0B0206FB081109EB02194018A8EB0401B1F1FF3FC9F80C000CD047F2FD
:204CE000A070C2F200000068494622F0ABFF012089F8080009E0C04642F20070C2F200004C
:204D0000C0F80090062089F808000BEB080046F6685108F10108C2F20001444541F8209080
:204D2000CAD807E04FEA080847F2A4710020C2F20001086001A800213022082322F07EFF40
:204D40000D9806900E980024417900940991017946F2D97201ABC0F2000207F1340022F0CB
:204D600069FF01A824220823214622F05FFF0120014601AA8DF81C1007F16C00214622F039
:204D800051FF3878A0B901A821462422082322F04DFF214607F1500001AA8DF81C1022F0BE
:204DA00041FF0D9847F6D101C0F20201B96035E048F62841C0F20201087840092AD348F6BC
:204DC0002440C0F202000278520907D248F62C42C0F202021268128852091BD309780909BB
:204DE00018D30078000907D248F62C40C0F202000068008800090DD3DAF8080050B948F616
:204E00006040C0F20200008806A140F2B312234622F004FFDAF808100D98B9600FB0BDE88E
:204E2000F08FC0462E2E2F4932532F4932534343323658582E6300C02DE9F84F0E46700681
:204E400088B029D5DFF83423107800210DF0F4F9040021D0CA4908688047054622F046FC7D
:204E6000012804D022F04CFA6168884203D140F201401CF079FA00202072201D12F09EFFF6
:204E8000C0490A6828469047204621F0D7FEFF224321204618F06EFEF0070BD522F030FA94
:204EA00028B100218160B848006800B1804786F0010060E1B00710D5002006900021049078
:204EC00000230290009005910393019101223C2002F08CF886F002004DE170074FF01E0858
:204EE000AA4F40F1A780002007908346A848007800210DF0A1F9A74904468878FF2804BF9D
:204F0000002020F051FCA07A21F0EAFF0546606D807A95F82E91022818BF032805F5947A6E
:204F200007D138680D3021F09FFD10B9386800F1070B5146484621F0A2FEA0B3606D807CB1
:204F40003B68002818BF012804D1194650461CF08BFA04E052464946184615F0D1F9FF28CC
:204F600043D018FB00F83868404406225146C01D1CF0AAFF386810F80810404400F1010A5E
:204F8000C01D079041F00209606DC17A01F0010185F82E110622606D00F10C0105F59470B9
:204FA0001CF092FF21E05146484621F05DFEE0B138685246494615F0A3F9FF2815D018FBAA
:204FC00000F8386840440D3021F04EFD58B9386840440D3021F048FD002801BF3868404448
:204FE000407F012801D149F0020905F12C004B46017806914189090905916A8C0799049252
:205000000122C088029140080390CDF804B0CDF800A00020A97901F0E9FFD5F89C015E49AD
:205020008842A8790CBF0021012113F001FA86F00400A0E0300610D50020069000210490F9
:2050400000230290009005910393019101223B2001F0CCFF86F080008DE0F00445D54F480B
:2050600004683868C11D0D301AF01EFD2CE0207A012828D1616D4878410724D504F13E001A
:205080000178022918BF03291DD14178386804F1380215F035F9FF2815D018FB00F538680C
:2050A00028440D3021F0E0FC68B938682844C11D0D301AF0F9FC38682844C11D062204F10C
:2050C00038001CF001FF2468002CD0D134484268344800784FF480510BF0B6FC10B18E20E9
:2050E00014F090FB86F4805045E0B00505D522F007FA2D4901200860FEE7710504D522F0CB
:205100006BFC86F4806036E0700405D5812014F079FB86F480402EE0B0042BD5234C20685E
:2051200010B1002020F040FB4FF0FF30206000201F4C15F0A9FB216851F8202F684690477B
:205140001C48016B426B00910192C06A24681A491A4A02910392ADF810006B462568184AB4
:2051600018491948A8471949086006F09FF986F4005000E0002009B0BDE8F08FF37B0020F1
:20518000D8250020DC250020EC7A0020307B0020F47B0020347A0020E9E301001C7B00209F
:2051A000607A0020E17B00207C052043FC7A0020F47A002074240020D1720200E17202001F
:2051C000FC7200202029002070680020F87A00202DE9F041ADF1100D12F03AF90CF030FDEE
:2051E00022F0F6FB42F23130C2F20000007847F68C21C2F20001087022F0E6FB0DF048FE9E
:205200001FF026F847F69025C2F20005284622F071F90026012432202E7029466880042016
:205220002C7112F0B1FF42F2E02742F23A38C2F20007C2F2000843F6B91181223860234620
:20524000C0F202011020CDF8008016F0A9F8C0B260B1102043F6894188F80000812223463B
:20526000C0F20201CDF8008016F09AF83868002800F0528142F60061C0F2932122F019FBEC
:2052800038684DF619612246C0F2000119F0ACFE38681AF065FA2946062012F075FF42F29B
:2052A000E827C2F200073860002800F031814AF2FF51C0F20E0122F0FCFA386846F6C94187
:2052C0002246C0F2020119F08FFE0220294612F05BFF42F2E425C2F200052860002800F098
:2052E00013814BF67F3122F0E4FA286847F211312246C0F2020119F077FE42F24835C2F22E
:205300000005286820F080FE48F6482042F2A051C0F20200C2F200012860FFF781FB002814
:2053200000F0EE800F2031461CF0C2FE3246A7201E21134622F06EFC47F69431C2F2000193
:205340000028086000F0D8801BF03AFB17F060FA47F24435C2F20005284621F071FAAE755C
:205360002C7044F621606E75C0F20200E8606C7047F25140C0F2020028612E752946EE759F
:205380004FF46120A86130461CF034FC47F6A83CC2F2000CCCF8000030B94FEA0808C046B1
:2053A000FEE74FEA0808C04641F2E820C5F2000090E80C004FF6FF71C0F2FF014FF0FF306E
:2053C0001940104047F6782302AAC2F2000382E8030030464FEA08080DEB00010A7A411CE3
:2053E0001A54C8B20628F7DB42F23431C2F20001DCF800000A6846F6B041C2F2000122F03D
:2054000014FA1AF0ADFC3046014611F0B9F947F27811C2F200010028086069D042F60015CE
:20542000C2F2000528461CF0BFF847F2B87010222946C2F2000021F0EBFF0EF06DFB3546F0
:2054400047F26C2047F6E10100960A223346C2F20000C0F20201019519F052F947F2801110
:20546000C2F200010A223346086047F6C10147F200200095C0F20201C2F20000019519F075
:205480003FF947F2841244F66D61C2F20002C0F2020110602246102015F082FF44F69361D6
:2054A00010203246C0F2020115F07AFF44F6B96110203246C0F2020115F072FF44F6DF6170
:2054C00010202246C0F2020115F06AFF42F6CD5110200522C0F2020115F062FF42F2D771CD
:2054E00010202246C0F2020115F05AFF18E0C046FEE74FEA0808C046FEE74FEA0808C0469B
:20550000FEE74FEA0808C046FEE74FEA0808C046FEE74FEA0808C046FEE74FEA0808C046BB
:2055200004B0BDE8F081704770B51446A0F580630A460146132BADF1100D104604D9183BDD
:2055400042D09A1E28D017E0DFE813F08601160076016A015E01520146013A0116001A01E4
:205560000E010201E600CE00160016009E007A0072004E004FEA0808092901DA022803D00E
:20558000022576E14FEA08082288084611461DF0CFFBC5B26DE1C046002840F0598113F01E
:2055A000EDFA48B141F6327101200025C2F2000108705EE14FEA080815F056FC0446502025
:2055C0001DF00AFEE5B254E1012840F04181002C00F03E81207841F633710025C2F20001A7
:2055E000087046E14FEA0808602811D184B141F6247621466022C2F2000606F1A0001CF00D
:2056000063FC00250120F07233E14FEA0808C046012840F01D81002C00F01A81207841F6A3
:205620002F710025C2F20001087022E14FEA0808012840F00D81207821F070FC002518E112
:20564000012840F005812078032880F20181002800F0FE8041F62471C2F20001887220780B
:20566000022809D110204872012021F0CDFF0025FFE04FEA0808C046002021F0C5FF0025D1
:20568000F7E04FEA0808C046072840F0E180611C01A806221BF030FB00250095217801A8A4
:2056A00003AA2B460BF0E4FE002818BF342540F0E08013F063FA58B19DF80C0041F6447210
:2056C0000121C2F200021154D3E04FEA0808C0469DF80C000AF0DCFC044650201DF07CFDD8
:2056E00015F0FAFBE5B2C4E0012840F0B18041F62472C2F200022178107B00250028117373
:2057000040F0B7802078012840F0B38015F0E4FBAFE04FEA0808C04641F62471C2F20001BB
:205720008A7A012840F09480022A04D02078062801DD112806DB022A40F08A802078102804
:2057400040F086804872002593E04FEA0808C04601287DD120780A287ADA41F62B710025E5
:20576000C2F20001087084E0012871D1207802286ED241F62A710025C2F20001087078E0AF
:20578000002865D113F0FAF938B141F6317101200025C2F2000108706BE000244FEA0808C8
:2057A00020460AF075FC641CE4B205460A2C01DA002DF5D050201DF00FFD15F08DFB58E066
:2057C000012845D1207841F62C710025C2F2000108704EE04FEA0808012839D12078022860
:2057E00036D241F629710025C2F20001087040E010282DD141F6647021461022C2F20000D0
:205800001CF062FB002534E0012821D1207802281ED241F628710025C2F20001087028E0EF
:20582000012815D12078052812DA41F627710025C2F2000108701CE0012809D120780228C6
:2058400006D241F626710025C2F20001087010E018250EE04FEA0808012809D12078032826
:2058600006DA41F625710025C2F20001087000E01825284604B070BDC8480278112A00D028
:2058800070472DE9F84FC64B187800210CF0D4FC04000AD100201FF087FF00201FF084FF20
:2058A000BDE8F24FFF2015F091BE04F14C0999F8000008B90121E172401C89F80000C2B22D
:2058C000E17DD9F804608A4220D2B07B401CB073D9F808104A7A520802F0010282F001025C
:2058E0001018B073A18BB06800EB8100B060607DC1060AD5628B99F80010A08B00FB112134
:20590000B068A63100EB8100306644E104F1280706F1900806F173054FF0000A4FD1A17FC6
:205920006975E07FA875D9F808205278930710D5E27FD30604D5C91E697500F0EF00A875F7
:20594000C6F874A085F800A00022A97D01F0FE011CE1900608D4F88B00B1F87E2876F88BE6
:2059600000B1386AC8F80000D9F808004178C8070DD5F88B00281CBF386A002807D0C8F8EA
:205980000000B97EF88B814238BF08462876E07FC1060BD5B06B397800EB8100B063A18C29
:2059A000A63100EB81007067022002E0C6F874A0002028700022E17F01F0FC01E6E0D9F838
:2059C00008205278D30717D5A87D697D00F0F700891E01F03F0182075CBF891D40F00200C9
:2059E000420644BF491E00F0BF00A8756975C8F800A085F818A0CEE0401AC0B20090900715
:205A000040F180800098012806F1400B44D1B06BA18C00EB8100B063A07F00F03F00A07711
:205A20006875801EE17FA975687501F0F701A975D9F8082053785A0704D5801F687501F01E
:205A4000FD01A9750023697DFA7E9BF8000001F03F018A18521CC0F3800192B200F003006A
:205A60001BF0C0F800F59B70A0841E21A08C90FBF1F18AB2A97D01F0FE0120460DF03CF97D
:205A800085F800A0F88B00B1F87E2876F88B00B1386AC8F800007EE00228B06BA18C00EB50
:205AA0008100B06326D1E07FC10706D5687D811F6975A87D00F0FE00A8750023697DFA7E45
:205AC0009BF8000001F03F018A18521CC0F3800192B200F003001BF085F800F59B70A084DB
:205AE0000022A97D01F0FE0120460DF005F9787FABF81A007A7F0098521C101AC0B2012895
:205B000014DD0BE0B06BA18C00EB8100B0637A7F0098E17F101ACA06C0B207D5A28CB16B5F
:205B2000A63201EB820171670221297098B3D8F8003097F81BC0E27FA17F6344C8F80030BD
:205B400052084FEA4208D9F808205278530748BF28F00208920748BF28F00808012807D159
:205B6000387F2876C6F874A028F0100885F800A001F0C00640461DF016FB00F03F003043B4
:205B8000687585F81680002208F0FC012046BDE8F84F0DF0B1B8BDE8F18F00BFDF7B0020E8
:205BA000F37B00200C2070472DE9F84F41F6247AC2F2000A9AF80000894648F20001CFF623
:205BC000FF7111EA090F3FD1DAF818005FEAD9011AD25FEA191038BF0020C0F074819AF879
:205BE0001000012807D147F6CA30C2F20000007808B910F04DFB89F008091FFA89F0BDE867
:205C0000F88F4FEA0808C046A8B104689CB1C046E07A68B97CB10120E072A17A62682089ED
:205C200006F03EFC606830B121F02EFA03E0C0462468002CECD189F004091FFA89F0BDE837
:205C4000F88F4FEA0808C04603F0EAFA071C00F036813878B03823D0401E15D01F3840F078
:205C60002B813846FDF718FB002840F0258142F25550C2F200000078FF2800F020813946B9
:205C800006F06AFF1BE1C0463879002840F014817888F9883A8917F073FA0DE14FEA080816
:205CA000B84698F80400DAF81860401E00F09480083825D0743840F0F980B8F80220301CFE
:205CC0004FF0040117D0C04603899A4212D0006888B103899A420DD0006860B103899A4282
:205CE00008D0006838B103899A4203D000680028EAD100E0C17AB8F802000DF08DFBD5E0EE
:205D000098F801001A2800F0CD80B8F802000421CEB14FEA0808C0463289904212D03668C1
:205D20008EB1328990420DD0366866B13289904208D036683EB13289904203D03668002EE7
:205D4000EAD100E0F17A891E26D0491E40F0AE80B8F80810044601290ED1B8F80A100329CA
:205D60000AD1D8F80C108A7804210FF0B5F80246DAF8140030B999E0DAF81400002800F0FB
:205D8000958018224068002800F0908003460421204698478AE0C046B8F80810834601220D
:205DA00001290BD1B8F80A10032907D1D8F80C108E781EB910210FF08FF80246DAF8140061
:205DC000002873D04068002870D0064605215846B0476BE04FEA080898F80800B8F802B0B3
:205DE00008F1080408285DD1301C4FF0040116D00289934512D0006888B1028993450DD0A4
:205E0000006860B10289934508D0006838B10289934503D000680028EAD100E0C17A084693
:205E2000801E15D0401E3DD16088042100220FF053F80246DAF81400002833D041680029CF
:205E400030D060880B46042198472BE04FEA08086088102100220FF03FF8054658461BF04C
:205E600063FAA8B147F6CA31C2F20001097861B94379801D0122014603F00103184620F0BC
:205E8000BFFBDAF8140030B90CE001208AF81000DAF8140030B1416821B160880B462A46EF
:205EA00005219847B8F8020011F01AFB98F8041008F1080021F0A9F838461FF0F9FE89F4BD
:205EC00000491FFA89F0BDE8F88F70472DE9F84306460D46707801071DD4D6F80310BA4850
:205EE00021F07F41203981423FBFD6F8061021F07F412039814228BF112033D2B01DF11CEF
:205F000088425FD3B07A002818BF012803D0022818BF032856D1B07C002818BF012803D0E6
:205F2000022818BF03284DD1307D012818BF022803D0832818BF032844D1707A10F00700BA
:205F400070723FD0307801210CF076F904000AD100201AF025FE044621F0BCFB844214BF44
:205F600007200D202DE104F15402002016606072207A012808BF0C20F4D00021E1750020FB
:205F80000121737A01FA00F73B4208D0E37D5B1CE375DBB2012B04BF00F125032376401CF2
:205FA0000328EEDB7078C10618D5317D012909D1102810D012280CD0132804D0152804D051
:205FC0001D2804D09FE0002006E0042004E0012002E0022000E00320A0735EE0FF20A07370
:205FE000307D02281EBF717801F003000328E9D00B07E7D408B18806E4D4480707D516F12E
:206000000C00DFD0F07A002818BF01287BD100206075E077707810F0030F27D1207D00F01C
:206020003F0020757078810605D45168002904BF9068002801D018216175707881060DD44F
:20604000307D832818BF032804D1182060750120E07703E0607D40F0010060757078410796
:2060600017D5E07F40F00200E07712E0217DC0074CBF0120022001F03F0141EA8011182082
:20608000607521750920E0777078410744BF0B21E177207D00F0C000A07796F913007F28B1
:2060A00006BF4A48007815F0E7FC04F12907387045B14749C86B42693978106801EB4101A1
:2060C000405C2870B07ADFF80C81DFF80C91434D002818BF012809D17875B07AC10758BF02
:2060E000C8460622414604F1300032E028680D3020F0BAFCB8B1B07AC10754BF4946414695
:2061000020F0B2FD08B912205BE0B07AC10754BF49464146062204F130001BF0D5FEB07A22
:2061200000F0010007E02868C11D062204F130001BF0CAFE032078752968B07A00F001003D
:206140000870B07AC107286858BFC84606224146401C1BF0B9FE707841072FD5B07A0228CB
:2061600018BF032821D1F17A286806F10C0201F0010114F0C5F88046B8F1FF0F15D01E20D7
:2061800010FB08F8286840440D3020F06DFC60B928684044C11D0D3019F086FC0120B87509
:2061A000062228684044C11D04E0F07AB875062206F10C0104F138001BF086FE012060726F
:2061C0000020BDE8F28300BFE0FFFF00DE7B002000950200247A00202C7A0020307B002089
:2061E0002DE9F84FB94E0F460546F80B80F03381AA49B44CDFF8BC8208788B46B90F80F0E3
:20620000D680B90880F0CA80DFF894A2DFF89492F90A80F09B80B90B80F08980790B53D22F
:20622000380C42D23809C0F032811DF099FE002836D04D465446032128682170783006F080
:206240002DF90EF0EFFD022000211EF0BBFF02201CF068FC11200DF017F89348007818B930
:20626000286840300AF04AFE9048007810B90E200DF00AF8607B20B10020607305201CF0C6
:2062800051FC404600228A4BB0F91C102270B0F91E006360814214BF0220072014F046FA20
:2062A00027F0080717F024FBF1E040461030016839B1C86840880028FBD0C868408801289C
:2062C000F7D027F40047EDE728B104201CF02AFC00208BF800001CF073FC40B1A8696FF40F
:2062E000807100224FF0007306462846B04772487249002208F00AFF504602212268704C91
:2063000001702668106B80474D466F492B680A689A4214BF0122002226B1801B01EB820117
:20632000000B8860002027F480572060BAE732684AB1906838B11069B2F93410926820231C
:2063400014460022A04727F40057A0E007F062FD834640460668DEB10569CDB94069B8B938
:206360004D46504604215A4A2B68017042601BB103F1780006F092F820683169006B2960B7
:2063800080474F49086053484FF400610EF02EFB584621F05FFC27F4806778E008F0E6FA94
:2063A00040460830006808B927F002076FE04A4A116841F08001116028B104201CF0B2FBA1
:2063C00000208BF8000007F025FD8146606D0068014604208847D8B1287CC8B13F48066830
:2063E000B6B12068006B8047801BE968E860E868000BE860E868884203D240184008E860CE
:20640000E86840F6C41181422CBFB0F5967FE960484621F01FFC1CF0D3FB88B1A8696FF42F
:20642000807100224FF0007304462846A04740460068002808BF47F0020701D017F058FAB1
:20644000686900214FF0806304460A462846A04727F000571BE007F0DDFC36689EB1B16AF8
:20646000890810D2B56AB16AA943B16221F0F2FBB06850B14DB13069B6F93410B468002390
:206480002A46A04701E021F0E5FB27F480471FB1104839460EF0AAFABDE8F88FB97600202D
:2064A000A8770020A8760020B8760020D68A020091FF000068730020247400203116010024
:2064C000B07600208C010010D0700020807300205DF6000034700020CC210840AC760020D8
:2064E0002DE9F847A84CA94DDFF8A482A94FAA4985B02278002A4FF4A05600F0FA80072AA8
:2065000014D0092A18BF0A2A00F0F6800B2A18BF0C2A00F013810D2A00F0D180112A5AD14F
:206520009E4A107800210BF087FE002877D0C5F80080426D5378016D994CDFF86882DB062F
:206540005DD50B4641F2044EB3F802C0F4451FBFB3F81A90F145B3F832A0F24506D041F267
:206560000A4EF4451CBFF145F24502D1A7F800E04DE04FF0000E40F601044FF4806A4FF0CF
:20658000180C0CFB0EFC03F1020939F80C90A7F8009019F47F4FF2D0B9F1020F40F2EF80D2
:2065A000B9EB0A0918D0B9EB0A0412D04FF4406AB4EB0A0401D0A41E012C40F2C980241F90
:2065C000FBD040F2FA37E41BE8D0641E00F0D180E11E00F0C48086E0B3F800C0A44540F0F6
:2065E000B7800EF1010EBEF1020FC8DD4FE0981C20F80C6010E00168002008710CE0488ED6
:20660000388041F20441401A01D0801F01D12C603DE041F206403880C5F8008037E06248D6
:206620008078FF2865D0C5F80080604A12681C2111FB00F1931C5B5A3B8013F47F4FF4D0B3
:206640004FF400641B1B5A4812D00A3B012B14D940F6F6341B1B032B84BF5B1F012B0ED9E7
:2066600040F2FF341B1B0AD05B1E012B05D908E0921C41F20143535201E0921C56522860B1
:2066800005E000201FF090F8852014F09FFF49480078012106F008FB2BE0092A53D1464902
:2066A0000A68508900284ED04449087817F0ECFA002100201FF05CFA0020207019E0488830
:2066C0003880022805D9801B03D040F20442801A39D1887B801CC2B2B52AA8BF6620887396
:2066E0000020488005E000201FF05EF8842014F06DFF06B0BDE8F0874888388010F47F4F08
:20670000FAD0B0F5A05FC8D041F6040290421AD12B4A92E8680002A82A4A80E868002A4DBD
:206720002A482E6800680023CDE9002356F85C7F274B02AAB84727490880DAE74888388066
:2067400010F47F4FFAD000201FF02EF88520CEE7807B012818BF042800D03E805CE7807BFB
:2067600001287FF444AF9A1C41F2024122F80C1052E75078C2064CBF886CC86E3BE70020E8
:206780001FF012F88320B2E7DF7B0020EC7A002053DE0100B87B002094740020F37B002069
:2067A000AD2400009D7D0000347A0020DC7A0020C56A0000E17B0020187B0020DE7B0020D3
:2067C000F495020002000080F47A0020F87A0020B9D60100D27900202DE9F84F064641F2B5
:2067E0007400C4F20200D6F800B07568D0F8008050F8041C08EA0108C0F808805FEA981036
:206800007ED342F2D861C2F200010868401C0228086000D100BF0868B0F5967F00D100BF5D
:2068200042F2EC6742F2F469C2F20007C2F200093968D9F80000884209D047F29C70C2F2BA
:206840000000006821F0E2F938680221017242F2F064C2F20004206800213860216008B9EB
:2068600000BF02E0386804210172DBF830000079072841D0DBF830000079082840D047F28E
:206880009877C2F20007386821F0BCF9C0B9386821F0B4F9014640F2F41203202160C1F21B
:2068A0000002087210680368CA68286801219847DBF830000521017114E04FEA0808C046D8
:2068C000DBF8301006200871D9F8001040F2F4122160C1F20002087210680368CA68286898
:2068E00001219847DBF80820DBF830103046904706E04FEA0808C046DBF830000821017169
:206900005FEA5810C0F0B08042F2DC61C2F200010868401C0228086000D100BF0868B0F5BD
